:020000040800F2
:10000000000002206D25000869250008672500080A
:100010006725000867250008672500080000000024
:10002000000000000000000000000000692500083A
:1000300069250008000000006925000869250008FE
:100040006725000867250008672500086725000860
:100050006725000867250008590C0008B10C000846
:10006000F10C0008350D0008790D0008672500081F
:100070006725000867250008672500086725000830
:100080006725000867250008672500086725000820
:100090006725000867250008672500086725000810
:1000A0006725000867250008672500086725000800
:1000B0009F0B0008D10B0008150C000867250008ED
:1000C00067250008672500086725000867250008E0
:1000D00067250008110F000867250008672500083C
:1000E00067250008672500086725000867250008C0
:1000F00067250008672500086725000867250008B0
:10010000672500086725000867250008672500089F
:10011000672500086725000867250008672500088F
:10012000672500086725000867250008672500087F
:10013000672500086725000867250008672500086F
:10014000672500086725000867250008672500085F
:10015000672500086725000867250008672500084F
:10016000672500086725000867250008672500083F
:10017000672500086725000867250008672500082F
:10018000672500086725000867250008672500081F
:10019000672500086725000867250008672500080F
:1001A000672500086725000867250008014B1868C7
:1001B00001F05EBC0000002010B50A4C40F2026065
:1001C00001F045F920464FF400530022012101F0CF
:1001D000C5F820464FF40053BDE81040022200212C
:1001E00001F0DCB800080240F8B5FFF7DFFF4A4C29
:1001F000FFF7E2FF00F01CFE484800F071FE48499E
:10020000464800F04DFED4F81438464923F4005314
:10021000C4F81438D4F8143843F40053C4F814382C
:10022000D4F8143823F40053C4F81438D4F814382C
:10023000002243F40053C4F81438104600F0F2F9D9
:10024000D4F8143823F40053C4F81438D4F814380C
:1002500043F40053C4F81438D4F8143823F400538A
:10026000C4F81438D4F8143843F40053C4F81438DC
:10027000002000F066FBD4F8143823F40053C4F8CF
:100280001438D4F8143843F40053C4F81438D4F8AC
:10029000143823F40053C4F81438D4F8143843F451
:1002A0000053C4F81438044630B1002000F0BBFB02
:1002B0001A4F05460646FEB91B49184800F0F0FDE6
:1002C0003CB31A49154800F0EBFD14482A46EB17D9
:1002D00000F082FE1649114800F0E2FD15490F4872
:1002E00000F0DEFD0021084600F0D8F84FF4FA6176
:1002F000002000F03FF9F5E7013EF0B200F02DFCE0
:1003000002460B46384600F04CFF384600F0E2FD4E
:10031000D1E70949DFE700BF0000024000100140BB
:10032000782B000800040240AE2B0008B32B000815
:10033000C22B0008AB2B0008CB2B000870B5114D69
:100340002B78044613B1104900F0AAFD00236A7807
:10035000204600F041FE6B8893B10C49204600F026
:100360009FFD6B88B3F57A7F03D20949204600F0E0
:1003700097FD6A8820460023BDE8704000F02CBE3F
:1003800070BD00BF180000200C2C00080E2C0008C7
:10039000102C00082DE9F743044600260D464E2197
:1003A0001F46904600F0BBFA3146204600F0B7FAEF
:1003B0003146204600F0B3FAA5F10901C9B203297C
:1003C00098BF324BB1469CBF5E5C03EB41032046B5
:1003D000314698BFB3F8049000F0A1FA204600F02F
:1003E000B0FA42463B46204600F0A9FB2046442195
:1003F00000F095FA4946204600F0BCF8204600F08F
:10040000A0FA42463B46204600F099FB2046BE211A
:1004100000F085FA204600F011FACDE900012046EF
:1004200000F0DDF908210446684600F063F8A042B8
:1004300029D19DF901109DF801209DF80030002977
:10044000BEBFD243DB43D2B21149B8BFDBB24FEAE1
:10045000021242EA131203F007034A70C3EB43127D
:1004600003EB8203B4BF0120002003EB8303087079
:100470004B800848084900F013FD0648FFF75EFF6F
:10048000044800F027FD03B0BDE8F083262C0008E7
:100490001800002000100140122C000870B504461E
:1004A000084600F05AFB50EA010306460D4602D109
:1004B0004FF0FF3070BD0E4BD3F8142882F4005279
:1004C000C3F81428D3F8142882F40052C3F814286F
:1004D000204600F036FA32462B46204600F02FFB2D
:1004E000204632462B460C21FFF754FFE2E700BFBF
:1004F0000000024010B5064A0346014400208B422A
:1005000000D110BD13F8014B6040105CF7E700BF4D
:10051000322C000814220F4B504301291A5808BFEF
:100520000221013910B551621A58D16219584A692D
:1005300042F001024A611958CA6842F00102CA60D9
:100540001A581C18136843F00103136001236374E5
:10055000E37410BD2000002010B50446FFF7DAFF59
:100560000348142202FB0400437C002BFCD110BD85
:100570002000002070B505464C084FF6FF76013C80
:10058000A4B2B44200D170BD4FF47A712846FFF78F
:10059000E3FFF4E71A4B984210B5044611D003F577
:1005A0008063984218D0B0F1804F20D14FF40060A2
:1005B00000F04DFF1C2002F029F84FF4806000F09D
:1005C00061FF40F6010000F042FF1D2002F01EF81E
:1005D00040F2014000F056FF40F6020000F037FF05
:1005E0001E2002F013F840F2024000F04BFF002200
:1005F00010231146204601F00BFB6423A36210BDBB
:1006000000040040024B142202FB0033586870477C
:1006100020000020024B142202FB0033187C70479C
:100620002000002002282DE9F04706460D46174617
:1006300074D83B4C94F83C10A1B9402204F1480016
:10064000C4F83D10C4F8411002F044FA4FF0804362
:10065000236003F58063636103F58063A362012374
:1006600084F83C302F4B9D4253D042D8A3F5006311
:100670009D4246D003F580639D4246D040F68E00F1
:1006800000F0E5FE012101FA07FA1FFA8AFA534643
:100690002846002200F062FE53460021284603222D
:1006A00000F07CFE142303FB0643042F4FF00002EE
:1006B0005A745D609A741F749FBF1B4BDB1907F15E
:1006C000060993F8008114235E43A3195FFA89F0A9
:1006D000C3F8088001F09AFF2946404600F0CEFD9D
:1006E0004046012100F07AFDA059BDE8F047FFF730
:1006F00051BF0E4B9D42C1D140F2036000F0A7FEF6
:10070000BCE74FF4C06000F0A2FE40F2016000F0D0
:100710009EFE40F2026000F09AFEEDE7BDE8F08731
:100720002000002000080240322C0008000C02408B
:1007300070B5224D142303FB005501242B7C04FAD1
:1007400003F30646214668689BB2002200F006FECD
:100750002B7C686804FA03F39BB20322002100F0AB
:100760001DFE69682A7C4B6904FA02F223EA02033F
:100770004B6130462146FFF7EFFE2B7C6868002274
:1007800004FA03F311469BB200F0E8FD0521304660
:10079000FFF7E2FE6B681A692B7C9C401440DC403A
:1007A00014F0FF0403D119213046FFF7D5FE30467F
:1007B0000121FFF7D1FE204670BD00BF20000020C0
:1007C00038B50546FFF7B4FF84012846FFF7B0FFB0
:1007D00004F0400444EAC010C0F3811038BD70B585
:1007E00006460825002044083046FFF7A1FF013DDA
:1007F00044EAC01015F0FF05C0B2F4D170BD70B569
:1008000006461025002044083046FFF791FF013DC1
:1008100044EAC03015F0FF0580B2F4D170BD70B568
:1008200006462025002044083046FFF781FF013DA1
:1008300015F0FF0544EAC070F5D170BDF8B500248D
:100840000746402621466408384644EAC1744D08EC
:10085000FFF76EFF013E16F0FF0645EAC071F2D1C8
:100860002046F8BDF8B5234C142303FB00440125B2
:10087000237C05FA03F39BB2002206460F4660680C
:10088000294600F06BFD237C606805FA03F39BB2F8
:100890000322002100F082FD6168227C4B6905FA89
:1008A00002F223EA02034B6197B93C213046FFF77D
:1008B00053FE237C606805FA03F39BB23A4639463F
:1008C00000F04CFD30460121BDE8F840FFF744BE82
:1008D00029463046FFF740FE237C6068002205FA77
:1008E00003F311469BB200F039FD3B213046FFF780
:1008F00033FEE7E720000020F8B507460C46154612
:100900001E4604B9F8BD05F0010138466D08013CEA
:1009100045EAC675FFF7A6FF7608E4B2F1E70A4696
:1009200000230821FFF7E8BF0A4600231021FFF744
:10093000E3BF0A4600232021FFF7DEBF4021FFF777
:10094000DBBFF8B51E4C142303FB00440125237CB8
:10095000002705FA03F306463A466068A77429465D
:100960009BB200F0FBFC237C606805FA03F3394678
:100970009BB2032200F012FD6168227C4B6905FAEC
:1009800002F223EA02034B6130464FF4F071FFF7A5
:10099000E3FDA06800F046FC237C606805FA03F3E1
:1009A0009BB23A46394600F0D9FC4FF4F07130461C
:1009B000FFF7D2FDA06800F043FCA07CF8BD00BFAB
:1009C000200000200D4B70B50022A3F10B04D3E9E9
:1009D00000658D4208BF864203F108030BD014F86E
:1009E000015B4DB9064B9C1803EBC203C3E912012E
:1009F000012584F83D5070BD0132E8E76800002011
:100A00002000002010B500200C463321FFF787FF9F
:100A10000020FFF713FF02460B46C4E90023BDE8A0
:100A20001040FFF7CFBF2DE9F74F00270646B84625
:100A30003D464FF0FF3B0020FFF783FFF02130469B
:100A4000FFF76DFF0024A246A1463046FFF7B8FE2F
:100A5000012801465DD002286FD0002849D101212C
:100A6000A4F12003C4F1200221FA02F201FA03F3F7
:100A7000C4F1200C1343A4F1200001FA04F205FA9A
:100A80000CFC28FA04F141EA0C0125FA00F00143BC
:100A900011F0010123D0C4F13F00A4F11F0E2BFA85
:100AA00000F1C4F11F0C0BFA0EFE41EA0E012BFA05
:100AB0000CFC41EA0C012BFA00F028EA010125EABE
:100AC000000001434AEA020A49EA030904BF28EA8E
:100AD00002089D4301213046FFF7C4FE09E030467D
:100AE000CDE90023FFF7BEFE009A019B42EA080809
:100AF0001D430134402CA8D150464946FFF762FF00
:100B0000013758EA0503FFB295D1384603B0BDE876
:100B1000F08F00903046FFF7A5FE0099A4F1200366
:100B2000C4F1200201FA03F321FA02F21343A140B7
:100B300041EA0A0A43EA0909DBE70021CBE770B57D
:100B40005521044616461D46FFF7E9FE204632466B
:100B50002B46FFF7F3FE012070BD082809D8064B8D
:100B60001A1892F83D2022B103EBC003D3E9120119
:100B700070470020002170472000002010B5044677
:100B80000846FFF7EAFF02460B4652EA030104D08B
:100B90002046BDE81040FFF7D2BF002010BD4FF047
:100BA00080431A69D20710D51A6922F001021A612E
:100BB000064AD17C01294FF0000001D1D074704762
:100BC000196821F00101196050747047200000205D
:100BD0004FF08043D3F81024D20717D5D3F8102450
:100BE00022F00102C3F81024094A92F827100129C3
:100BF0004FF0000002D182F827007047D3F80014AC
:100C000021F00101C3F8001482F82500704700BFED
:100C1000200000204FF08043D3F81028D20717D5CA
:100C2000D3F8102822F00102C3F81028094A92F8DC
:100C30003B1001294FF0000002D182F83B007047C1
:100C4000D3F8001821F00101C3F8001882F8390028
:100C5000704700BF2000002008B5012000F000FB15
:100C6000114BD3F8142882F40052C3F81428D3F897
:100C7000142882F40052C3F814280C4B1A7C32B1A9
:100C800093F8242062B193F838205AB90222142133
:100C900001FB023301209874BDE8084000F0D0BA8F
:100CA0000122F4E708BD00BF000002402000002040
:100CB00008B5022000F0D4FA0C4B1A7C012A12D09D
:100CC00093F82420012A04D093F83820012A0CD16B
:100CD0000222142101FB023301229A74BDE808406C
:100CE000022000F0ADBA0022F3E708BD200000208A
:100CF00008B5042000F0B4FA0D4B1A7C022A11D07A
:100D000093F82420022A0FD093F83820022A0DD11C
:100D1000142101FB023301229A74BDE8084004202B
:100D200000F08EBA0022F3E70122F1E708BD00BF10
:100D30002000002008B5082000F092FA0D4B1A7C24
:100D4000032A12D093F82420032A10D093F83820D5
:100D5000032A0ED10222142101FB023301229A74CC
:100D6000BDE80840082000F06BBA0022F3E701223A
:100D7000F1E708BD2000002008B5102000F070FA4F
:100D80000D4B1A7C042A12D093F82420042A10D088
:100D900093F83820042A0ED10222142101FB0233D9
:100DA00001229A74BDE80840102000F049BA0022E0
:100DB000F3E70122F1E708BD20000020014B18787D
:100DC000704700BFA800002000487047B000002016
:100DD00010B5064C40F20112002104F1080001F0A8
:100DE00079FE0023A4F80A31237010BDA80000206A
:100DF00010B50E4C40F2016000F029FB2046402364
:100E00000022022100F0AAFA204608230022022133
:100E100000F0A4FA20464022072100F0DAFA20462A
:100E20000822BDE81040072100F0D3BA00040240B8
:100E300010B5FFF7DDFF154C252001F0E7FB40F66C
:100E4000840000F004FB20464FF4E13101F0DAFAAF
:100E50002046082101F0ECFA2046002101F0F1FAC9
:100E600020460C2101F0F9FA2046002101F0EFFAAA
:100E70002046002101F0F7FAE36843F02003E36025
:100E80002046BDE8104001F0F4BA00BF0010014058
:100E9000024BD868C0F3C010704700BF001001407B
:100EA0000A4BDA681006FCD40948C0F80C1111F896
:100EB000012BD2B25A60DA68C0F80C1142F08002FD
:100EC000DA60DA681206FCD4704700BF00100140F7
:100ED000A80000200149FFF7E3BF00BFAB2B0008CB
:100EE0000149FFF7DDBF00BF372D0008064B4A1C44
:100EF000C3F80C210A78054BD2B25A60DA6842F086
:100F00008002DA60704700BFA80000200010014096
:100F10002E4BDA6810B594061ED51A6890061BD5BC
:100F20002B4A586814782B4A81B2002C39D00D29ED
:100F30000C4625D1012182F810115C60D96841F07E
:100F40008001D96001211170B2F80A1189B2FF291C
:100F500084BF0021A2F80A11DA6811060FD51A68B9
:100F600012060CD51B4A92F81011E9B10A215960FA
:100F7000002182F81011DA6822F08002DA6010BDD8
:100F80005960B2F80A1189B24C1CA4B21144A2F8FB
:100F90000A410872B2F80A1112FA81F100200872AF
:100FA000D2E70D29EDD1CDE7D2F80C110029E6D01A
:100FB000087800F0FF0410B9C2F80C41DBE7481CC8
:100FC000C2F80C010A78D2B25A60D8E7001001408A
:100FD00004000020A80000202DE9F843174E1C460D
:100FE000002386F8333152EA04030746154604D13C
:100FF0001349BDE8F843FFF753BF124BD3F80490F1
:1010000006F233164FF00108284621460A22002333
:1010100001F0E8FB19F8023006F8013D2A462346A4
:101020000A2A73F1000305460C4608F10108EBD2C9
:1010300005493846A1EB0801DBE700BFA800002006
:10104000102C000804000020DC0100200149FFF7FB
:1010500027BF00BF3E2D000810B40A4B5A680B0989
:1010600001F00F01D45C084B83F81141525C83F806
:101070001221002283F813215DF8044B03F21111B1
:10108000FFF70EBF04000020A800002038B504467A
:101090000D46FFF7DBFF29462046BDE83840FFF745
:1010A000DBBF10B40F4B5A680B0BD45C0E4B83F8AC
:1010B0001141C1F30324145D83F81241C1F30314F9
:1010C00001F00F01145D83F81341525C83F8142181
:1010D000002283F815215DF8044B03F21111FFF78C
:1010E000DFBE00BF04000020A800002038B5044681
:1010F0000D46FFF7ABFF29462046BDE83840FFF715
:10110000D0BF10B4194B1A4A5C680B0FE35C82F82D
:101110001131C1F30363E35C82F81231C1F303536D
:10112000E35C82F81331C1F30343E35C82F81431CA
:10113000C1F30333E35C82F81531C1F30323E35CAD
:1011400082F81631C1F30313E35C82F8173101F022
:101150000F0302F21111E35C82F81831002382F8C8
:1011600019315DF8044BFFF79BBE00BF040000205F
:10117000A800002038B504460D46FFF767FF294652
:101180002046BDE83840FFF7BCBF38B519460446D5
:101190001546FFF7B6FF29462046BDE83840FFF761
:1011A000B0BF70B5044616461D46FFF74FFF3246E6
:1011B0002B462046BDE87040FFF7E7BF70B50C46F0
:1011C00015460646FFF742FF2544AC4200D170BDEC
:1011D00014F8011B3046FFF73FFFF6E701290FD057
:1011E000022918D059B90E4BD3F8082C0243C3F882
:1011F000082CD3F80C2C22EA0002C3F80C2C704700
:10120000074BD3F8082C22EA0002C3F8082CD3F8C5
:101210000C2C0243F1E7024BD3F8082C0243F4E70D
:1012200000300140054BD3F8002C0243C3F8002CDA
:10123000D3F8042C0243C3F8042C7047003001405B
:10124000064BD3F8002C22EA0002C3F8002CD3F896
:10125000042C22EA0002C3F8042C7047003001403D
:10126000014BC3F8140C704700300140024BD3F817
:10127000143C1840704700BF003001402DE9F04F8A
:101280002C4FDFF8C4E0DFF8C480DFF8C490DFF84B
:10129000C4A0DFF8C4B084460022012303FA02F0A0
:1012A00010EA0C0F1ED02448814239D027D8A0F56F
:1012B0004060814236D01AD8514504D0A1EB0B04CE
:1012C000634263415B001D4800EB9204A40002F0FE
:1012D00003052068AD000F26AE4020EA0600AB40B3
:1012E000184320600132102AD7D1BDE8F08F49455C
:1012F0001AD0134B99420CBF05230023E3E7B942F0
:1013000014D007D8714513D0A1EB080043424341E4
:10131000DB00D8E70B4B99420CBF0A230023D2E72E
:101320000623D0E70323CEE70423CCE70923CAE74B
:101330000723C8E70024024000180240024E0010B4
:101340000014024000280240001C0240002002401D
:101350000010024000040240000802402DE9F04164
:101360000568C46800264FF0030E43FA06F7FF072E
:101370000DD577000EFA07FC01FA07F825EA0C05EF
:1013800024EA0C0402FA07F748EA05053C43013653
:10139000102EEAD10560C460BDE8F08101294168E2
:1013A0000CBF19439943F0B54160816800240326BE
:1013B00043FA04F5ED0707D5650006FA05F721EABB
:1013C000070102FA05F529430134102CF0D18160A0
:1013D000F0BDF0B5066A456A00234FF00F0C42FAE3
:1013E00003F4E70707D59C000CFA04F726EA070682
:1013F00001FA04F426430133082BF0D100234FF007
:101400000F0C03F1080442FA04F4E40707D59C002A
:101410000CFA04F725EA070501FA04F42543013321
:10142000082BEED106624562F0BD03680B430360F2
:101430007047036823EA0103036070470368194398
:1014400001607047036823EA0103036070474309A2
:1014500003F1804303F50E3300F01F0019680122E9
:1014600082400A431A607047430903F1804303F541
:101470000E3300F01F001A680121814022EA0102A8
:101480001A607047430903F1804303F50E3300F0FF
:101490001F0019680122824011431960196821EA6E
:1014A00002021A607047FFF7D2BFFFF7DDBF0000EE
:1014B000044AD2F8083823F4C00343EA4053C2F880
:1014C0000838704700300240032802D0052808D0B1
:1014D0007047084AD2F8003843F48023C2F8003835
:1014E0007047044AD2F8703843F00403C2F87038E9
:1014F000704700BF00300240032802D0052808D002
:101500007047084AD2F8003823F48023C2F8003824
:101510007047044AD2F8703823F00403C2F87038D8
:10152000704700BF00300240072803464FF001001B
:1015300005D90B2B94BF073B063B984080B2704700
:1015400006280CD8DFE800F004242A0C12181E002C
:10155000154AD2F80C3843F48013C2F80C3870479F
:10156000114AD2F80C3843F40023F6E70E4AD2F8B9
:101570000C3843F48023F0E70B4AD2F80C3843F4DC
:101580000033EAE7084AD2F80C3843F48033E4E742
:10159000054AD2F80C3843F48003DEE7024AD2F859
:1015A0000C3843F40013D8E70030024006280CD86A
:1015B000DFE800F004242A0C12181E00154AD2F8A5
:1015C0000C3843F48053C2F80C387047114AD2F8F3
:1015D0000C3843F40063F6E70E4AD2F80C3843F4B3
:1015E0008063F0E70B4AD2F80C3843F40073EAE763
:1015F000084AD2F80C3843F48073E4E7054AD2F87D
:101600000C3843F48043DEE7024AD2F80C3843F446
:101610000053D8E70030024006280CD8DFE800F07D
:1016200004242A0C12181E00154AD2F80C3823F490
:101630008053C2F80C387047114AD2F80C3823F4A2
:101640000063F6E70E4AD2F80C3823F48063F0E723
:101650000B4AD2F80C3823F40073EAE7084AD2F8B0
:101660000C3823F48073E4E7054AD2F80C3823F4ED
:101670008043DEE7024AD2F80C3823F40053D8E75F
:101680000030024006282FD8DFE800F00422280AA4
:1016900010161C00154BD3F80C08C0F3001070474F
:1016A000124BD3F80C08C0F3C00070470F4BD3F8AF
:1016B0000C08C0F3800070470C4BD3F80C08C0F343
:1016C00040007047094BD3F80C0800F00100704748
:1016D000064BD3F80C08C0F380107047034BD3F8C7
:1016E0000C08C0F3401070470020704700300240E3
:1016F000034AD2F80C3843F40003C2F80C387047A0
:1017000000300240024BD3F80C08C0F3C010704701
:101710000030024006282BD8DFE800F0041E240A1F
:1017200010161A00134BD3F80008C0F3406070473E
:10173000104BD3F80008C0F3404070470D4BD3F86E
:101740000008C0F3400070470A4BD3F87008F8E770
:10175000084BD3F87408F4E7064BD3F80008C0F33D
:1017600040707047034BD3F80008C0F3C060704767
:10177000002070470030024008B502461046FFF7CF
:10178000C9FF0028FAD008BD032807D10D4AD2F8B6
:10179000083803F00C03042BF9D17047042806D154
:1017A000084AD2F8083813F00C0FFAD17047002815
:1017B000FCD1044AD2F8083803F00C03082BF9D105
:1017C000704700BF0030024006280CD8DFE800F068
:1017D00004282E0C12182000174AD2F8003843F0C3
:1017E0008073C2F800387047134AD2F8003843F4C7
:1017F0008033F6E7104AD2F8003843F00103F0E7EF
:101800000D4AD2F8703843F00103C2F870387047BF
:10181000094AD2F8743843F00103C2F874387047AB
:10182000054AD2F8003843F08053DAE7024AD2F88A
:10183000003843F08063D4E70030024006280CD81B
:10184000DFE800F004282E0C12182000174AD2F806
:10185000003823F08073C2F800387047134AD2F87A
:10186000003823F48033F6E7104AD2F8003823F02A
:101870000103F0E70D4AD2F8703823F00103C2F8F3
:1018800070387047094AD2F8743823F00103C2F85F
:1018900074387047054AD2F8003823F08053DAE7ED
:1018A000024AD2F8003823F08063D4E700300240C7
:1018B000034AD2F8003843F40023C2F800387047D6
:1018C00000300240034AD2F8003823F40023C2F863
:1018D000003870470030024047F6C0730907044AD9
:1018E00003EA801301F0E0410B43C2F884387047EB
:1018F0000030024012061B0703F0E04302F0706262
:1019000009041A4301F4403147F6C07303EA801317
:101910000A431A43014BC3F888287047003002403D
:10192000084AD2F88C3823F07F4323F47C0309045F
:1019300023F4604341EA002123F0FF031943C2F876
:101940008C18704700300240044AD2F8083823F05F
:1019500003030343C2F80838704700BF0030024059
:10196000044AD2F8043823F4800343EA8053C2F8CF
:101970000438704700300240044AD2F8083823F493
:10198000604343EA4033C2F80838704700300240F1
:10199000044AD2F8083823F4E05343EA8023C2F81B
:1019A0000838704700300240044AD2F8083823F063
:1019B000F00343EA0013C2F80838704700300240D1
:1019C000044AD2F8083823F4F81343EA0043C2F873
:1019D000083870470030024010B547F6C07404EA7A
:1019E000811400F03F001B0603F0706304431C43A6
:1019F000029B5208022B02F1FF324FEA024238BF2B
:101A0000022302F440321B0703F0E04314431C435B
:101A1000014BC3F8044810BD0030024010B5029CD1
:101A2000022C38BF022424071B0603F0706304F065
:101A3000E04452081C4300F03F0047F6C073013AEF
:101A400003EA8113044312041C4302F44032034BA3
:101A5000144344F48004C3F8044810BD003002402D
:101A6000024BD3F80808C0F38100704700300240F1
:101A700037B504460420FFF7A7FEFFF77DFE0020E0
:101A8000FFF762FFE379012B04D10320FFF79CFEEF
:101A9000FFF772FE40F61C00FFF7D9FCE07B00F078
:101AA00099FE207BFFF780FF607BFFF771FFA07B33
:101AB000FFF762FF0020FFF7C1FEE379A5792279E5
:101AC00061882078012B637900952FD1FFF7A6FF5D
:101AD0000020FFF779FEFFF74FFEA3685A0528D5CF
:101AE00000F03CFEA3689B0526D500F04BFEA068E5
:101AF00000F01AFE0220FFF727FF124AD2F808383A
:101B000003F00C03082BF9D10F4B22691A600F4B1D
:101B100062691A600E4BA2691A60E379012B0ED13B
:101B2000042003B0BDE83040FFF788BEFFF754FF44
:101B3000CEE700F01DFED5E700F02EFED7E703B09C
:101B400030BD00BF00300240140000201000002013
:101B50000C000020FFF78CBF044B20F480609842FB
:101B60000CBF034B034B1868704700BF00100140C7
:101B70000C00002010000020094B00F14040B0F59F
:101B8000005FD3F8083806D8064A106813F4E05FFF
:101B900018BF40007047044A13F4604F1068F7E71D
:101BA00000300240100000200C000020014B18689B
:101BB000704700BF10000020044B20F48060984262
:101BC0000CBF034B034B1868704700BF0038004040
:101BD000100000200C000020C3680B43C360704756
:101BE000C36823EA0103C36070470369C0681840F3
:101BF000084003D080298CBF002001207047036972
:101C00000B4214BF012000207047C9430161704797
:101C100010B504681A4324F45C740A43224302603A
:101C200010BD036823F440730360036801F440713E
:101C3000194301607047036843F0800303607047F5
:101C4000036823F0800303607047036823F0600398
:101C50000360036801F06001194301607047036885
:101C600023F0100303607047036843F01003036020
:101C70007047036843F0080303607047036823F06C
:101C8000080303607047036823F004030360704790
:101C9000036843F0040303607047036823F0020302
:101CA00003607047036843F00203036070470368F2
:101CB00043F0010303607047036823F001030360EE
:101CC0007047436801F4FE4119434160704743681F
:101CD00001F4FE4123EA010343607047436843F087
:101CE000800343607047436823F08003436070477C
:101CF000436823F07003436043680B4343607047BD
:101D0000436823F0080343607047436843F00803C7
:101D100043607047436843F004034360704743687F
:101D200023F0040343607047436843F001034360BA
:101D30007047436823F00103436070478162704736
:101D400001637047C1627047062912D8DFE801F0CD
:101D5000041109110D111200836943F0800383619E
:101D60007047836943F40043F9E7C36943F0800394
:101D7000C3617047C36943F40043F9E7062912D8E9
:101D8000DFE801F0041109110D111200836923F03D
:101D9000800383617047836923F40043F9E7C369D3
:101DA00023F08003C3617047C36923F40043F9E75C
:101DB000062912D8DFE801F0041109110D111200F3
:101DC000836943F0040383617047836943F480634C
:101DD000F9E7C36943F00403C3617047C36943F47F
:101DE0008063F9E7062912D8DFE801F00411091130
:101DF0000D111200836923F0040383617047836926
:101E000023F48063F9E7C36923F00403C3617047D7
:101E1000C36923F48063F9E706297AD8DFE801F083
:101E20000479337963799200836923F00303836132
:101E300083698361836923F070038361072A68D80B
:101E4000DFE802F03304090D1115191D836943F011
:101E5000100383617047836943F02003F9E78369C6
:101E600043F03003F5E7836943F04003F1E783690A
:101E700043F05003EDE7836943F06003E9E78369CA
:101E800043F07003E5E7836923F44073836183695A
:101E90008361836923F4E0438361072A39D8DFE84B
:101EA00002F004060A0E12161A1E8369D1E783692E
:101EB00043F48053CDE7836943F40053C9E7836952
:101EC00043F44053C5E7836943F48043C1E7836922
:101ED00043F4A043BDE7836943F4C043B9E7836992
:101EE00043F4E043B5E7C36923F00303C361C36967
:101EF000C361C36923F07003C361072A09D8DFE80F
:101F000002F03304090D1115191DC36943F01003C4
:101F1000C3617047C36943F02003F9E7C36943F025
:101F20003003F5E7C36943F04003F1E7C36943F0C9
:101F30005003EDE7C36943F06003E9E7C36943F089
:101F40007003E5E7C36923F44073C361C369C361E8
:101F5000C36923F4E043C361072ADAD8DFE802F05B
:101F600004060A0E12161A1EC369D1E7C36943F4A8
:101F70008053CDE7C36943F40053C9E7C36943F411
:101F80004053C5E7C36943F48043C1E7C36943F4E1
:101F9000A043BDE7C36943F4C043B9E7C36943F451
:101FA000E043B5E7062912D8DFE801F00411091172
:101FB0000D111200836943F0080383617047836940
:101FC00043F40063F9E7C36943F00803C361704752
:101FD000C36943F40063F9E7062912D8DFE801F08A
:101FE000041109110D111200836923F008038361A4
:101FF0007047836923F40063F9E7C36923F008039A
:10200000C3617047C36923F40063F9E7062909D85F
:10201000DFE801F0041509190D1D1100036A23F012
:10202000020303627047036A23F02003F9E7036A9F
:1020300023F40073F5E7036A23F40053F1E7036A1E
:1020400023F00803EDE7036A23F08003E9E7036A5E
:1020500023F40063E5E7062909D8DFE801F0041559
:1020600009190D1D1100036A43F002030362704752
:10207000036A43F02003F9E7036A43F40073F5E7CA
:10208000036A43F40053F1E7036A43F00803EDE702
:10209000036A43F08003E9E7036A43F40063E5E77A
:1020A000062909D8DFE801F0041509190D1D1100F2
:1020B000036A43F0010303627047036A43F01003AD
:1020C000F9E7036A43F48073F5E7036A43F4805346
:1020D000F1E7036A43F00403EDE7036A43F04003CA
:1020E000E9E7036A43F48063E5E7062909D8DFE8F6
:1020F00001F0041509190D1D1100036A23F00103F5
:1021000003627047036A23F01003F9E7036A23F4BC
:102110008073F5E7036A23F48053F1E7036A23F041
:102120000403EDE7036A23F04003E9E7036A23F4BD
:102130008063E5E7062909D8DFE801F004090D11FD
:1021400015191D00436843F480734360704743686A
:1021500043F40073F9E7436843F48063F5E74368A9
:1021600043F40063F1E7436843F48053EDE74368C9
:1021700043F40053E9E7436843F48043E5E7062965
:1021800009D8DFE801F004090D1115191D00436895
:1021900023F4807343607047436823F40073F9E7C6
:1021A000436823F48063F5E7436823F40063F1E7B1
:1021B000436823F48053EDE7436823F40053E9E7D1
:1021C000436823F48043E5E706290CD8DFE801F0F3
:1021D000040B060B080B0A004263704782637047CA
:1021E000C263704702647047436C43F40043436426
:1021F0007047436C23F4004343647047436C43F4DB
:10220000804343647047436C23F4804343647047C6
:10221000436C43F4005343647047436C23F400530E
:1022200043647047436C43F4805343647047436C8A
:1022300023F4805343647047436C43F40063436466
:102240007047436C23F4006343647047436C43F46A
:10225000806343647047436C23F480634364704736
:10226000436C0B4343647047FFF7FABF43690B436A
:1022700043617047406A70474162704703291CD828
:10228000DFE801F0020B131C836923F0F003836184
:10229000836943EA021383617047836923F47043BF
:1022A0008361836943EA0233F5E7C36923F0F003EE
:1022B000C361C36943EA0213C3617047C36923F46E
:1022C0007043C361C36943EA0233F5E703291CD8AD
:1022D000DFE801F0020B131C836923F00C03836118
:1022E000836943EA820383617047836923F440630F
:1022F0008361836943EA8223F5E7C36923F00C0312
:10230000C361C36943EA8203C3617047C36923F4AD
:102310004063C361C36943EA8223F5E701F0FD032B
:10232000012B02F0030204D1531E012B98BF82F04F
:10233000030203291AD8DFE801F0020A121A83699E
:1023400023F00303836183691343836170478369C7
:1023500023F440738361836943EA0223F5E7C36989
:1023600023F00303C361C3691343C3617047C369A7
:1023700023F44073C361C36943EA0223F5E7026AA9
:10238000890001238B40134303627047036A89006D
:1023900001228A4023EA020303627047836823F420
:1023A00070638360836843EA0123836070478368B6
:1023B00023F440538360836843EA013383607047AA
:1023C000836819B143F400438360704723F40043EA
:1023D000FAE7836823F00703836083681943816009
:1023E0007047836823F070038360836819438160BA
:1023F0007047836819B143F480438360704723F4C6
:102400008043FAE7074A084B10B520F480649442F1
:102410001B6804BF054B1B6803EB5103B3FBF1F1D1
:10242000816010BD00100140100000200C00002051
:10243000C36808290CBF23F4805343F48053C3605E
:102440007047036923F440530B4303617047C3682B
:1024500023F4C0630B43C3607047C36823F00C03CD
:102460000B43C3607047436923F440730B434361DC
:102470007047C36843F40053C3607047C36823F4D4
:102480000053C360704738B504460D4600F05DF850
:1024900029462046BDE8384000F04FB810B5044644
:1024A00000F057F82046BDE8104000F04AB84369F4
:1024B00043F0400343617047436923F040034361A5
:1024C0007047436943F0800343617047436923F0D9
:1024D000800343617047C36843F02003C3607047C3
:1024E000C36823F02003C3607047C36843F08003D0
:1024F000C3607047C36823F08003C3607047C3683C
:1025000043F04003C3607047C36823F04003C360D7
:102510007047C36843F01003C3607047C36823F07B
:102520001003C3607047436943F001034361704780
:10253000436923F0010343617047C1F3080141601F
:1025400070474068C0F30800704703681B06FCD55D
:10255000704703689B06FCD5704703680B4214BFA5
:10256000012000207047FEE77047000038B51D4A83
:102570001D4B1E498B4220D31D4A0021934221D37B
:102580004FF0E0231B4CD3F8142D1B4D42F4007286
:10259000C3F8142DD3F8882D42F47002C3F8882DA7
:1025A000AC4212D3154C164DAC4212D3FDF71CFEB3
:1025B000144C154DAC4210D338BD52F8040B43F8FF
:1025C000040BD7E743F8041BD8E754F8043B9847BB
:1025D000E6E754F8043B9847E6E754F8043B98478D
:1025E000E8E700BF8C2F0008000000201800002042
:1025F000DC010020842F0008842F0008842F0008AD
:10260000842F0008842F0008842F0008044B4209FF
:1026100003EB820300F01F00012282401A60704722
:1026200000E100E0044B420903EB820300F01F00CD
:10263000012282401A60704780E100E0064B4209A7
:1026400003EB820300F01F001A680123834013424A
:1026500014BF01200020704700E200E0044B420953
:1026600003EB820300F01F00012282401A607047D2
:1026700000E200E0044B420903EB820300F01F007C
:10268000012282401A60704780E200E0064B420956
:1026900003EB820300F01F001A68012383401342FA
:1026A00014BF01200020704700E100E05A2893BFCA
:1026B00000F16040044B00F00F0000F564408CBF57
:1026C000C1540170704700BF14ED00E0064B420991
:1026D00003EB820300F01F001A68012383401342BA
:1026E00014BF01200020704700E300E0EF289FBFE7
:1026F0004FF0E023D3F8002F1043C3F8000F7047CA
:10270000034AD2F8003C43F48073C2F8003C70479F
:1027100000300240034AD2F8003C23F48073C2F830
:10272000003C704700300240044AD2F8003C23F0DD
:102730000F030343C2F8003C704700BF0030024063
:10274000044B054AC3F8082C02F14432C3F8082CA4
:10275000704700BF003002403B2A1908034AD2F8F4
:10276000003C43F48063C2F8003C704700300240F4
:10277000034AD2F8003C23F48063C2F8003C70475F
:1027800000300240034AD2F8003C43F40073C2F820
:10279000003C704700300240034AD2F8003C23F46A
:1027A0000073C2F8003C704700300240034AD2F880
:1027B000003C43F48053C2F8003C704700300240B4
:1027C000034AD2F8003C43F40063C2F8003C70476F
:1027D00000300240024A136860F38F331360704781
:1027E0000070004053B94AB9002908BF00281CBF37
:1027F0004FF0FF314FF0FF3000F06AB9ADF1080C37
:102800006DE904CE00F006F8DDF804E0DDE902230E
:1028100004B070472DE9F047089D0E4604460F4668
:10282000002B4AD194468C45B2FA82F260D942B16B
:10283000C2F12003974020FA03F30CFA02FC1F4375
:1028400094404FEA1C4E1FFA8CF6B7FBFEF1230CA6
:102850000EFB117743EA074301FB06F098420AD9C1
:102860001CEB030301F1FF3780F01581984240F221
:102870001281023963441B1AA4B2B3FBFEF00EFBB3
:10288000103344EA034400FB06F6A6420AD91CEBC7
:10289000040400F1FF3380F00081A64240F2FD8085
:1028A0006444023840EA0140A41B00211DB1D44019
:1028B0000023C5E90043BDE8F0878B4205D90DB17F
:1028C000C5E9000100210846F5E7B3FA83F10029C4
:1028D00046D1B34202D3824200F2F580841A66EBFD
:1028E000030201201746002DE5D0C5E90047E2E7C5
:1028F000002A40F09380A1EB0C034FEA1C471FFA1B
:102900008CFE0121B3FBF7F607FB1630230C43EADC
:1029100000430EFB06F0984208D91CEB030306F1B6
:10292000FF3802D2984200F2D08046461B1AA4B269
:10293000B3FBF7F007FB103344EA03440EFB00FE41
:10294000A64508D91CEB040400F1FF3302D2A645CA
:1029500000F2B6801846A4EB0E0440EA0640A5E754
:10296000C1F120078B4022FA07FC4CEA030C06FA5F
:1029700001FE20FA07F426FA07F344EA0E0400FAEF
:1029800001F84FEA1C404FEA1449B3FBF0FE1FFA6E
:102990008CF600FB1E3349EA03430EFB06F999450A
:1029A00002FA01F20BD91CEB03030EF1FF3A80F09F
:1029B0008580994540F28280AEF1020E6344A3EB1C
:1029C0000909A4B2B9FBF0F300FB139944EA0944E6
:1029D00003FB06F6A64208D91CEB040403F1FF3002
:1029E00068D2A64266D9023B644443EA0E40A41B67
:1029F000A0FB02E6B4427346B14652D34FD05DB15C
:102A0000B8EB030264EB090404FA07F722FA01F3B6
:102A10001F43CC40C5E9007400214CE7C2F12001FE
:102A200020FA01F30CFA02FC26FA01F19640334336
:102A30004FEA1C471FFA8CFEB1FBF7F007FB10169C
:102A4000190C41EA064100FB0EF68E4204FA02F42C
:102A500008D91CEB010100F1FF382DD28E422BD991
:102A600002386144891B9BB2B1FBF7F607FB1611D4
:102A700043EA014306FB0EF1994208D91CEB03031C
:102A800006F1FF3814D2994212D9023E63445B1A10
:102A900046EA004136E73946EDE6184602E7F045DA
:102AA000ADD2BEEB020366EB0C060138B146A6E7D9
:102AB0004646ECE7034698E74046D3E7D6467EE72E
:102AC0006444023847E708460DE7023E63442DE7B9
:102AD000704700BF830730B548D0541E002A3FD04E
:102AE000CAB2034601E0013C3AD303F8012B9D072B
:102AF000F9D1032C2DD9CDB245EA05250F2C45EA95
:102B0000054536D9A4F1100222F00F0C03F1200E76
:102B1000E6444FEA121C03F1100242E9045542E96F
:102B2000025510327245F8D10CF1010214F00C0F6D
:102B300003EB021204F00F0C13D0ACF1040323F0EA
:102B400003030433134442F8045B9342FBD10CF0BB
:102B500003042CB1CAB21C4403F8012B9C42FBD1E4
:102B600030BD64461346002CF4D1F9E70346144601
:102B7000BFE71A46A446E0E74C4850202D20426C9F
:102B8000756570696C6C0D0A31775F636C69656E91
:102B9000742E630D0A41756720323820323032348A
:102BA000202D2031363A31303A32390D0A00643165
:102BB00077200070726573656E7420666F756E6441
:102BC00020002064657669636573006162736365E4
:102BD0006E7400000C000901040F000102060000E1
:102BE00000040003A0043A0850021D04A0043A089F
:102BF00019009001040F0001020600000004000308
:102C000000E1F50580F0FA0200E1F5052D002E0047
:102C1000300074656D7065726174757265207265DF
:102C20006164203A0000F8FCFAFE5E00BC00770107
:102C3000EE02005EBCE2613FDD83C29C7E20A3FD0C
:102C40001F419DC3217FFCA2401E5F01E3BD3E608A
:102C500082DC237D9FC1421CFEA0E1BF5D0380DEBC
:102C60003C62BEE0025CDF81633D7C22C09E1D436E
:102C7000A1FF4618FAA427799BC584DA3866E5BB1C
:102C80005907DB856739BAE406581947A5FB78264A
:102C9000C49A653BD987045AB8E6A7F91B45C6987C
:102CA0007A24F8A6441A99C7257B3A6486D85B052E
:102CB000E7B98CD2306EEDB3510F4E10F2AC2F71DC
:102CC00093CD114FADF3702ECC92D38D6F31B2EC0A
:102CD0000E50AFF1134DCE90722C6D33D18F0C523C
:102CE000B0EE326C8ED0530DEFB1F0AE4C1291CFEE
:102CF0002D73CA947628ABF517490856B4EA69379C
:102D0000D58B5709EBB536688AD495CB2977F4AAC9
:102D10004816E9B7550B88D6346A2B7597C94A14FB
:102D2000F6A8742AC896154BA9F7B6E80A54D789AD
:102D30006B3501020408101B631B5B334A003078BB
:102D40000030313233343536373839616263646587
:102D5000660000001900500104070001020600008F
:102D60000004000300BD010580DE800200BD0105F6
:102D70001900C00002040001030600000004000363
:102D800000D8B805006CDC0200D8B8051900500165
:102D9000020700010506000000050403007A030A8B
:102DA00080DE800200BD01051900680102080001F3
:102DB00005060000000504030095BA0A40A5AE020E
:102DC000804A5D0510005001040700010206000062
:102DD0000004000300BD010580DE800200BD010586
:102DE0000800600002040001030600000004000364
:102DF00000D8B805006CDC0200D8B80510005001FE
:102E0000020700010506000000050403007A030A1A
:102E100080DE800200BD010510006801020800018B
:102E200005060000000504030095BA0A40A5AE029D
:102E3000804A5D050C0050010407000102060000F5
:102E40000004000300BD010580DE800200BD010515
:102E500006006000020400010306000000040003F5
:102E600000D8B805006CDC0200D8B8050C00500191
:102E7000020700010506000000050403007A030AAA
:102E800080DE800200BD01050C006801020800011F
:102E900005060000000504030095BA0A40A5AE022D
:102EA000804A5D0508005001040700010206000089
:102EB0000004000300BD010580DE800200BD0105A5
:102EC0000400600002040001030600000004000387
:102ED00000D8B805006CDC0200D8B8050800500125
:102EE000020700010506000000050403007A030A3A
:102EF00080DE800200BD01050800680102080001B3
:102F000005060000000504030095BA0A40A5AE02BC
:102F1000804A5D0510005001040700000206000011
:102F20000004000300BD010580DE800200BD010534
:102F30000800600002040000030600000004000313
:102F400000D8B805006CDC0200D8B80510005001AC
:102F5000020700000506000000050403007A030ACA
:102F600080DE800200BD010510006801020800003B
:102F700005060000000504030095BA0A40A5AE024C
:042F8000804A5D0521
:082F840090F8FF7F010000003E
:102F8C00F02B000801000000412D00080024F40083
:082F9C000024F4000024F400FD
:040000050800256D5D
:00000001FF
