:020000040800F2
:100000000050002085160008811600087F160008A1
:100010007F1600087F1600087F1600080000000009
:100020000000000000000000000000008116000831
:100030008116000800000000811600085101000828
:100040007F1600087F1600087F1600087F1600083C
:100050007F1600087F1600087F1600087F1600082C
:100060007F1600087F1600087F1600087F1600081C
:100070007F1600087F1600087F1600087F1600080C
:100080007F1600087F1600087F1600087F160008FC
:100090007F1600087F1600087F1600087F160008EC
:1000A0007F1600087F1600087F1600087F160008DC
:1000B0009D0100087F1600087F1600087F160008C3
:1000C0007F1600087F1600087F1600087F160008BC
:1000D0007F1600087F1600087F1600087F160008AC
:1000E0007F1600087F1600087F1600087F1600089C
:1000F0007F1600087F1600087F1600087F1600088C
:100100007F1600087F1600087F1600087F1600087B
:100110007F1600087F1600087F1600087F1600086B
:100120007F1600087F1600087F1600087F1600085B
:100130007F1600087F1600087F1600087F1600084B
:100140007F1600087F1600087F1600087F1600083B
:100150000A21104B1A6805321A601A68B2FBF1F0D6
:1001600001FB1022AAB95968013159605968B1F5EB
:100170007A7F28BF5A605968074A32F811100A2955
:1001800007D95B6800214FF0804032F8132001F05E
:1001900058B97047E0070020000000204FF080436E
:1001A0001A69910708D51A6922F002021A610A4AEF
:1001B000136943F4005313614FF080431A69D20767
:1001C00008D51A6922F001021A61034A136943F043
:1001D00000531361704700BF00100140024BD3F879
:1001E000D00700F019BD00BF0000002008B5084B83
:1001F0009B681869C823B0FBF3F001F08DFA042066
:1002000001F09CFA01F0CEFABDE8084001F0BCBA5A
:10021000E007002010B54FF4417000F0A7FDBDE8E5
:1002200010404FF4005300220321014800F056B85B
:100230000010014008B54FF4607000F097FD1C20DD
:1002400001F0CFFA4FF4007000F0ADFD00234FF045
:1002500080401A46194600F018FE144B00215A68D7
:10026000134B4FF0804033F8122001F0EAF84FF6BC
:10027000FF714FF0804000F0A2FE4FF0804000F090
:1002800049FE4FF0804000F036FE04214FF08040E0
:1002900000F091FE4FF0804000F046FEBDE80840BF
:1002A00003214FF0804000F0D3BD00BFE0070020E5
:1002B0000000002008B5FFF791FFFFF7ABFF4FF4F8
:1002C0000052044BDA60FFF791FFFFF7B3FF024BD8
:1002D0001B68FEE700100140E00700202DE9F04117
:1002E00000264FF00F0E9C46036847684CFA06F450
:1002F000E4071BD5072E94BF9846B846B4B24FEA20
:1003000084048ABF203CA4B2A4B20EFA04F528EA01
:100310000508A51CADB202FA05F501FA04F42C4358
:1003200044EA0804072E94BF234627460136102EC0
:10033000DCD103604760BDE8F0810000024B084358
:1003400040F080001860704700000140034A536885
:1003500023F0E0630B430343536070470000014008
:10036000024AD3690343D361704700BF00000140D4
:1003700006280AD8DFE800F0040A0F14191E23002B
:10038000114A936843F48013936070470E4A936850
:1003900043F40013F8E70C4A936843F48003F3E74F
:1003A000094A936843F40023EEE7074A936843F44D
:1003B0008023E9E7044A936843F40033E4E7024A00
:1003C000936843F48033DFE70010024006280AD820
:1003D000DFE800F0040A0F14191E2300114A936885
:1003E00043F48053936070470E4A936843F400537C
:1003F000F8E70C4A936843F48043F3E7094A9368AB
:1004000043F40063EEE7074A936843F48063E9E747
:10041000044A936843F40073E4E7024A936843F4A0
:100420008073DFE70010024006280AD8DFE800F0FA
:10043000040A0F14191E2300114A936823F48053F1
:10044000936070470E4A936823F40053F8E70C4A10
:10045000936823F48043F3E7094A936823F4006325
:10046000EEE7074A936823F48063E9E7044A936858
:1004700023F40073E4E7024A936823F48073DFE710
:100480000010024008B5134B062821D8DFE800F021
:1004900004080C1014181C009868C0F3001008BD64
:1004A0009868C0F34010FAE79868C0F38010F6E748
:1004B0009868C0F3C000F2E79868C0F38000EEE7E8
:1004C0009868C0F34000EAE7986800F00100E6E7AA
:1004D00001F007FA00100240024A936843F4000357
:1004E0009360704700100240024B9868C0F3C01040
:1004F000704700BF00100240062824D8DFE800F053
:1005000004090E13181D2000104B1868C0F340603A
:1005100070470E4B1868C0F3C06070470B4B1868EB
:10052000C0F340707047094B1868C0F340407047F3
:10053000064B1868C0F340007047044B186AF9E78F
:10054000024B586AF6E70020704700BF00100240D7
:10055000024608B51046FFF7CFFF0028FAD008BDC5
:1005600006282AD8DFE800F0040A0F14191E240018
:10057000124A136843F08073136070470F4A136880
:1005800043F08063F8E70D4A136843F08053F3E7C4
:100590000A4A136843F48033EEE7084A136843F0CD
:1005A0000103E9E7054A136A43F001031362704748
:1005B000024A536A43F0010353627047001002403D
:1005C00006282AD8DFE800F0040A0F14191E2400B8
:1005D000124A136823F08073136070470F4A136840
:1005E00023F08063F8E70D4A136823F08053F3E7A4
:1005F0000A4A136823F48033EEE7084A136823F0AD
:100600000103E9E7054A136A23F001031362704707
:10061000024A536A23F001035362704700100240FC
:10062000024A136843F4002313607047001002402D
:10063000024A136823F4002313607047001002403D
:10064000034A536823F0030303435360704700BF1A
:1006500000100240034A536823F4701343EA8043B6
:100660005360704700100240034AD36A23F470635A
:1006700043EA0023D362704700100240034AD36A62
:1006800023F4704343EA0033D36270470010024002
:10069000034A536823F4803343EA004353607047AE
:1006A00000100240034A536823F4003343EA4043F6
:1006B0005360704700100240024B186A00F400407B
:1006C000704700BF00100240024A136A43F400431F
:1006D000136270470010024006283BD8DFE800F0A4
:1006E00035353525350415001B4B1A6A42F00102D9
:1006F0001A621A6A9007FCD51A6A22F440721A62CA
:100700001A6A42F480721A627047134B5A6A42F0B6
:1007100001025A625A6A9107FCD51A6A22F44072A1
:100720001A621A6A42F40072EDE70B4B1A6842F43F
:1007300080321A601A689203FCD51A6A22F4407259
:100740001A621A6A42F44072DDE7034A136A23F41C
:1007500040731362704700BF00100240034A5368A1
:1007600023F4404343EA8033536070470010024053
:10077000034A536823F4605343EAC023536070472D
:1007800000100240034A536823F4E06343EA002365
:100790005360704700100240034A536823F0F0038F
:1007A00043EA00135360704700100240044B5A683C
:1007B00018B142F480025A60704722F48002FAE7CE
:1007C00000100240034AD36A23F00F030343D362AD
:1007D000704700BF00100240034AD36A23F0F003C1
:1007E00043EA0013D362704700100240044BDA6AF8
:1007F00018B142F48032DA62704722F48032FAE7AC
:1008000000100240024B5868C0F38100704700BFDF
:100810000010024008B50420FFF7A2FEFFF798FE83
:100820000020FFF70DFFFFF7B7FF0320FFF796FF4C
:100830000420FFF7A7FF0020FFF79AFF022001F036
:1008400065F80E20FFF706FF0020FFF721FFFFF7F6
:1008500087FEFFF77DFE0220FFF7F2FE044B054AFC
:1008600005491360054A1160054A136008BD00BFC1
:100870000090D003D40700200048E801D8070020EA
:10088000DC07002008B50420FFF76AFEFFF760FED2
:100890000020FFF7D5FEFFF77FFF0320FFF75EFF85
:1008A0000420FFF76FFF0020FFF762FF0E4A0120D0
:1008B000536843F48003536001F028F80A20FFF7DF
:1008C000C9FE0020FFF7E4FEFFF74AFEFFF740FEF7
:1008D0000220FFF7B5FE054B054A06491360064A9C
:1008E0001160064A136008BD00100240006CDC0273
:1008F000D407002000366E01D8070020DC07002056
:1009000008B50420FFF72CFEFFF722FE0020FFF7BA
:1009100097FEFFF741FFFFF721FFFFF733FFFFF7D8
:1009200027FF00F0F3FF0420FFF794FE0020FFF7FD
:10093000AFFEFFF715FEFFF70BFE0220FFF780FE6C
:10094000034B044A1360044A1360044A136008BD51
:1009500000366E01D4070020D8070020DC070020F5
:1009600008B50420FFF7FCFDFFF7F2FD0020FFF7BC
:1009700067FE0320FFF7F4FDFFF7EAFD0120FFF714
:100980005FFE0020FFF708FFFFF7E8FEFFF7FAFE23
:10099000FFF7EEFE00F0BAFF0120FFF75BFEFFF766
:1009A00077FE0020FFF77EFEFFF7DAFDFFF7D0FDB0
:1009B0000220FFF745FE044B044A1360044A13600B
:1009C000044A136008BD00BF00366E01D407002042
:1009D000D8070020DC07002008B50420FFF7C0FD81
:1009E000FFF7B6FD0020FFF72BFE0320FFF7B8FD51
:1009F000FFF7AEFD0120FFF723FE0020FFF7CCFE3E
:100A00000320FFF7ABFE0420FFF7BCFE0020FFF73A
:100A1000AFFE022000F07AFF0720FFF71BFE012047
:100A2000FFF736FE0020FFF73DFEFFF799FDFFF7C9
:100A30008FFD0220FFF704FE044B054A05491360B1
:100A4000054A1160054A136008BD00BF00A24A04B0
:100A5000D407002000512502D8070020DC07002021
:100A600008B50420FFF77CFDFFF772FD0020FFF7BB
:100A7000E7FD0320FFF774FDFFF76AFD0120FFF794
:100A8000DFFD0020FFF788FE0220FFF767FE04204D
:100A9000FFF778FE0020FFF76BFE022000F036FF24
:100AA0000420FFF7D7FD0120FFF7F2FD0020FFF73C
:100AB000F9FDFFF755FDFFF74BFD0220FFF7C0FDE5
:100AC000044B054A05491360054A1160054A136045
:100AD00008BD00BF00A24A04D4070020005125022F
:100AE000D8070020DC07002008B50420FFF738FDF8
:100AF000FFF72EFD0020FFF7A3FD0320FFF730FDD9
:100B0000FFF726FD0120FFF79BFD0020FFF744FEC5
:100B10000220FFF723FE0420FFF734FE0020FFF73A
:100B200027FE022000F0F2FE0720FFF793FD0120D0
:100B3000FFF7AEFDFFF7B6FD0020FFF711FDFFF751
:100B400007FD0220FFF77CFD044B054A05491360B1
:100B5000054A1160054A136008BD00BF00A24A049F
:100B6000D407002000512502D8070020DC07002010
:100B700008B50320FFF7F4FCFFF7EAFC0120FFF7BC
:100B80005FFD022000F0C2FE0020FFF705FE0220FC
:100B9000FFF7E4FD0420FFF7F5FD0020FFF7E8FD77
:100BA0000420FFF719FE0620FFF75EFD0120FFF786
:100BB000D7FCFFF7CDFC0020FFF774FD104A04209E
:100BC000D36A104943F48033D362FFF7FBFD07205B
:100BD000FFF740FD0120FFF75BFD0020FFF7E6FD7A
:100BE000FFF7BEFCFFF7B4FC0220FFF729FD064B20
:100BF000064A1360064A1160064A136008BD00BF2A
:100C0000001002400051250200A24A04D40700202F
:100C1000D8070020DC07002010B504464378012BDC
:100C20000CBF03200420FFF79BFCFFF791FCA0788A
:100C3000FFF7B2FDE078FFF7A5FD2079FFF798FDFB
:100C40006079FFF78BFD207BFFF7B0FDA07900F006
:100C50005DFE2078FFF7FEFC6078FFF719FDE07974
:100C600001282DD9FFF7AEFD207A08B1FFF7BEFDB0
:100C7000607A08B1FFF7B0FDA07A30B1FFF7F4FC5D
:100C80000120FFF76DFCFFF763FCE07A30B1FFF75E
:100C9000F5FC0220FFF764FCFFF75AFC0020FFF789
:100CA0005FFCFFF755FC0220FFF7CAFC2269064BE8
:100CB0001A606269054B1A60A269054B1A6010BD83
:100CC000FFF7F0FCD0E700BFD4070020D8070020D2
:100CD000DC070020044B1A6A42F480321A621A6A56
:100CE00022F480321A62704700100240034B98428F
:100CF0000CBF034B034B1868704700BF003801401E
:100D0000DC070020D8070020094B00F14040B0F577
:100D1000005F5B6806D8074A13F4E06F106818BFDD
:100D200040007047044A13F4605F1068F7E700BFA3
:100D300000100240D8070020DC070020014B186893
:100D4000704700BFD807002003680B43036070475B
:100D5000036823EA010303607047036819430160D5
:100D60007047036823EA01030360704701224309C7
:100D700003F1804303F50433196800F01F0002FA01
:100D800000F00843186070470121430903F18043D4
:100D900003F504331A6800F01F0001FA00F022EA9C
:100DA0000000186070470122430903F1804303F5F6
:100DB0000433196800F01F0002FA00F001431960C3
:100DC0001A6822EA000018607047FFF7CFBFFFF7EC
:100DD000DBBF0000034A536823F0706343EA0063FB
:100DE0005360704700100240032802D0052806D047
:100DF0007047064A136843F4802313607047034A20
:100E0000136A43F004031362704700BF00100240EE
:100E1000032802D0052806D07047064A136823F439
:100E2000802313607047034A136A23F0040313629C
:100E3000704700BF00100240072803464FF0010032
:100E400005D90B2B94BF073B063B984080B27047F7
:100E5000C3680B43C3607047C36823EA0103C360E0
:100E600070470369C068034013EA010003D080297A
:100E70008CBF00200120704703690B4214BF012082
:100E800000207047C9430161704710B504681A43D8
:100E900024F45C740A432243026010BD036801F429
:100EA000407123F440730360036819430160704785
:100EB000036843F0800303607047036823F08003F6
:100EC00003607047036801F0600123F06003036072
:100ED0000368194301607047036823F0100303603F
:100EE0007047036843F0100303607047036843F0E2
:100EF000080303607047036823F00803036070472A
:100F0000036823F0040303607047036843F004039D
:100F100003607047036823F00203036070470368AF
:100F200043F0020303607047036843F0010303606A
:100F30007047036823F0010303607047436801F4BE
:100F4000FE41194341607047436801F4FE4123EAC2
:100F5000010343607047436843F080034360704778
:100F6000436823F0800343607047426822F07002B8
:100F7000426043680B4343607047436823F00803B3
:100F800043607047436843F0080343607047436819
:100F900043F0040343607047436823F00403436055
:100FA0007047436843F0010343607047436823F090
:100FB0000103436070478162704701637047C162FB
:100FC0007047062912D8DFE801F0041109110D114C
:100FD0001200836943F0800383617047836943F49F
:100FE0000043F9E7C36943F08003C3617047C369F5
:100FF00043F40043F9E7062912D8DFE801F00411B1
:1010000009110D111200836923F080038361704779
:10101000836923F40043F9E7C36923F08003C361C4
:101020007047C36923F40043F9E7062912D8DFE8C3
:1010300001F0041109110D111200836943F004033A
:1010400083617047836943F48063F9E7C36943F0C0
:101050000403C3617047C36943F48063F9E7062959
:1010600012D8DFE801F0041109110D111200836993
:1010700023F0040383617047836923F48063F9E7F5
:10108000C36923F00403C3617047C36923F4806319
:10109000F9E706297AD8DFE801F004793379637932
:1010A0009200836923F00303836183698361836909
:1010B00023F070038361072A68D8DFE802F0330465
:1010C000090D1115191D836943F0100383617047E1
:1010D000836943F02003F9E7836943F03003F5E7C0
:1010E000836943F04003F1E7836943F05003EDE780
:1010F000836943F06003E9E7836943F07003E5E740
:10110000836923F44073836183698361836923F472
:10111000E0438361072A39D8DFE802F004060A0EAB
:1011200012161A1E8369D1E7836943F48053CDE711
:10113000836943F40053C9E7836943F44053C5E727
:10114000836943F48043C1E7836943F4A043BDE767
:10115000836943F4C043B9E7836943F4E043B5E7E7
:10116000C36923F00303C361C369C361C36923F087
:101170007003C361072A09D8DFE802F03304090DC0
:101180001115191DC36943F01003C3617047C3698A
:1011900043F02003F9E7C36943F03003F5E7C3697F
:1011A00043F04003F1E7C36943F05003EDE7C3693F
:1011B00043F06003E9E7C36943F07003E5E7C369FF
:1011C00023F44073C361C369C361C36923F4E0437B
:1011D000C361072ADAD8DFE802F004060A0E121605
:1011E0001A1EC369D1E7C36943F48053CDE7C369CD
:1011F00043F40053C9E7C36943F44053C5E7C369E7
:1012000043F48043C1E7C36943F4A043BDE7C36926
:1012100043F4C043B9E7C36943F4E043B5E70629A3
:1012200012D8DFE801F0041109110D1112008369D1
:1012300043F0080383617047836943F40063F9E76F
:10124000C36943F00803C3617047C36943F4006393
:10125000F9E7062912D8DFE801F0041109110D1190
:101260001200836923F0080383617047836923F4C4
:101270000063F9E7C36923F00803C3617047C369DA
:1012800023F40063F9E7062909D8DFE801F0041523
:1012900009190D1D1100036A23F002030362704750
:1012A000036A23F02003F9E7036A23F40073F5E7E8
:1012B000036A23F40053F1E7036A23F00803EDE720
:1012C000036A23F08003E9E7036A23F40063E5E798
:1012D000062909D8DFE801F0041509190D1D1100D0
:1012E000036A43F0020303627047036A43F020037A
:1012F000F9E7036A43F40073F5E7036A43F4005324
:10130000F1E7036A43F00803EDE7036A43F0800363
:10131000E9E7036A43F40063E5E7062909D8DFE853
:1013200001F0041509190D1D1100036A43F00103B2
:1013300003627047036A43F01003F9E7036A43F45A
:101340008073F5E7036A43F48053F1E7036A43F0DF
:101350000403EDE7036A43F04003E9E7036A43F45B
:101360008063E5E7062909D8DFE801F004150919CB
:101370000D1D1100036A23F0010303627047036A25
:1013800023F01003F9E7036A23F48073F5E7036A97
:1013900023F48053F1E7036A23F00403EDE7036AC3
:1013A00023F04003E9E7036A23F48063E5E70629B5
:1013B00009D8DFE801F004090D1115191D00436873
:1013C00043F4807343607047436843F40073F9E764
:1013D000436843F48063F5E7436843F40063F1E74F
:1013E000436843F48053EDE7436843F40053E9E76F
:1013F000436843F48043E5E7062909D8DFE801F0B4
:1014000004090D1115191D00436823F4807343600E
:101410007047436823F40073F9E7436823F480635B
:10142000F5E7436823F40063F1E7436823F480534E
:10143000EDE7436823F40053E9E7436823F480436E
:10144000E5E706290CD8DFE801F0040B060B080BD2
:101450000A004263704782637047C2637047026448
:101460007047436C43F4004343647047436C23F478
:10147000004343647047436C43F4804343647047C4
:10148000436C23F4804343647047436C43F400533C
:1014900043647047436C23F4005343647047436CC8
:1014A00043F4805343647047436C23F48053436494
:1014B0007047436C43F4006343647047436C23F408
:1014C000006343647047436C43F480634364704734
:1014D000436C23F4806343647047436C0B43436461
:1014E0007047FFF7FABF43690B4343617047406A97
:1014F00070474162704703291CD8DFE801F0020BF6
:10150000131C836923F0F0038361836943EA0212A9
:1015100082617047836923F470438361836943EA7E
:101520000232F5E7C36923F0F003C361C36943EAFC
:101530000212C2617047C36923F47043C361C36977
:1015400043EA0232F5E703291CD8DFE801F0020B79
:10155000131C836923F00C038361836943EA8202CD
:1015600082617047836923F440638361836943EA3E
:101570008222F5E7C36923F00C03C361C36943EA20
:101580008202C2617047C36923F44063C361C369C7
:1015900043EA8222F5E701F0FD03012B02F003028A
:1015A00004D1531E012B98BF82F0030203291AD8DD
:1015B000DFE801F0020A121A836923F00303836152
:1015C00083691A4382617047836923F4407383619E
:1015D000836943EA0222F5E7C36923F00303C36189
:1015E000C3691A43C2617047C36923F44073C3617E
:1015F000C36943EA0222F5E78B000121026A9940A0
:101600001143016270478A000121036A914023EA75
:10161000010303627047826822F47062826083680B
:1016200043EA012383607047826822F4405282605B
:10163000836843EA013383607047836819B143F4D8
:1016400000438360704723F40043FAE7836823F084
:10165000070383608368194381607047836823F0C0
:10166000700383608368194381607047836819B190
:1016700043F480438360704723F48043FAE7FEE736
:101680007047000038B51A4A1A4B1B498B421AD3CF
:1016900000211A4A93421BD34FF0E022D2F8143DA6
:1016A000174C43F40073174DC2F8143DAC4212D3EB
:1016B000154C164DAC4212D3FEF7FCFD144C154DE3
:1016C000AC4210D338BD52F8040B43F8040BDDE7ED
:1016D00043F8041BDEE754F8043B9847E6E754F868
:1016E000043B9847E6E754F8043B9847E8E700BF17
:1016F000181A000800000020E0070020EC07002076
:10170000181A0008181A0008181A0008181A0008F1
:10171000181A0008181A00084FF0E02320F07F4044
:10172000586170474FF0E023586920F07F407047C0
:101730004FF0E023986920F07F4070474FF0E0229F
:10174000136900F0040023F004030343136170479E
:10175000B1FBF0F108B50B4B994210D86FF07F4305
:1017600099422ABF00200420C908FFF7E7FF4FF085
:10177000E0230120013921F07F41596108BD00209B
:10178000FCE700BFF7FFFF074FF0E022136943F0CB
:101790000203136170474FF0E022136923F0020344
:1017A000136170474FF0E022136943F001031361A6
:1017B00070474FF0E022136923F001031361704773
:1017C0004FF0E0231869C0F3004070474FF0E0236A
:1017D00000229A6170474FF0E023D86920F07F40E3
:1017E0007047012243099B0003F1604300F01F0092
:1017F00003F5614302FA00F01860704701234209C3
:1018000000F01F0003FA00F0014B43F8220070477C
:1018100080E100E043099B0003F1604303F562436C
:101820001A68012300F01F0003FA00F0104214BFF1
:10183000184600207047012243099B0003F16043D2
:1018400000F01F0003F5624302FA00F018607047D1
:101850000123420900F01F0003FA00F0014B43F896
:101860002200704780E200E043099B0003F16043DF
:1018700003F561431A68012300F01F0003FA00F02A
:10188000104214BF1846002070470000432893BF41
:1018900000F16040044B00F00F0000F564408CBF85
:1018A000C1540170704700BF14ED00E043099B0074
:1018B00003F1604303F563431A68012300F01F003E
:1018C00003FA00F0104214BF184600207047EF28BA
:1018D0009FBF4FF0E023D3F8002F1043C3F8000F51
:1018E0007047FEE708B5FFF7FCFF0000024A1368E7
:1018F00043F010031360704700200240024A13684F
:1019000023F010031360704700200240034A13685D
:1019100023F0070303431360704700BF0020024019
:10192000034B044A9A6002F188329A60704700BF04
:101930000020024023016745040100040002020068
:10194000000000000000000000A24A04005125022F
:1019500000A24A0407010004000202010000000086
:101960000000000000A24A040051250200A24A041F
:101970000701000400020204010406000000000048
:1019800000A24A040051250200A24A0401010000FD
:1019900000000000000000000000000000366E01A2
:1019A00000366E0100366E010701000400030200DC
:1019B000000000000000000000A24A0400512502BF
:1019C00000A24A0404000000000000000000000023
:1019D0000000000000366E0100366E0100366E0118
:1019E0000A000004000301000000000001000000E4
:1019F000006CDC0200366E01006CDC020E0000049C
:101A00000003020000000000000000000090D0036E
:081A10000048E8010090D0033A
:101A180000000000000000000000010001000100BB
:101A280002000300040005000600070009000B007F
:101A38000D0010001200150018001C0020002400E2
:101A480029002E00330039003F0045004C005300A8
:101A58005B0063006C0075007E00880093009E00A8
:101A6800A900B500C200CF00DD00EB00FA000901B3
:101A780019012A013B014D015F01720186019A019A
:101A8800AF01C501DB01F2010A0222023B02550245
:101A980070028B02A702C402E20200031F033F0385
:101AA8005F038103A303C603EA030E0434045A0444
:101AB8008104A904D204FB04260551057D05AB0564
:101AC800D9050706370668069906CC06FF063307C8
:101AD80069079E07D6070D0846088008BB08F7085F
:101AE80033097109B009EF09300A710AB30AF70A14
:101AF8003B0B810BC70B0E0C570CA00CEB0C360DD7
:101B0800820DD00D1E0E6D0EBE0E0F0F610FB40F9D
:101B180009105E10B5100C116511BE11191274125E
:101B2800D1122E138D13EC134D14AF141215751515
:101B3800DA154016A6160F177717E1174C18B818BC
:101B480025199319021A721AE21A551BC81B3C1C54
:101B5800B11C261D9D1D161E8E1E081F841F0020E9
:101B68007D20FB207A21FA217B22FD228023032479
:101B780088240E2595251C26A5262F27B927452814
:101B8800D2285E29EC297C2A0C2B9D2B2F2CC22CC9
:101B9800562DEA2D802E172FAE2F4630DF307931A3
:101BA8001332AF324C33E93387342635C6356736BE
:101BB8000937AB374D38F23896393B3AE23A883B29
:101BC800303CD93C823D2C3ED73E823F2E40DB4004
:101BD80088413642E64295434644F644A8455A466B
:101BE8000E47C04775482949DF49954A4C4B034C75
:101BF800BB4C734D2C4EE44E9E4F59501451D0514E
:101C08008C5249530554C25481553F56FE56BD5710
:101C18007D583C59FD59BE5A7F5B425C035DC65DE9
:101C2800885E4C5F0E60D26097615B621F63E563FC
:101C3800AA646F653566FB66C16787684E69166A70
:101C4800DD6AA36B6B6C316DF96DC16E896F527073
:101C58001A71E171A97272733A740375CB7594762F
:101C68005C772578EE78B7797F7A467B0F7CD67CCF
:101C7800A07D677E307FF77FBE8087814E82168386
:101C8800DC83A4846B853286F886BD87838849897E
:101C98000F8AD58A998B5D8C218DE68DAA8E6D8FE2
:101CA8003090F290B49176923893F893B9947995EC
:101CB8003A96F996B79775983499F199AE9A6A9BBE
:101CC800279CE19C9D9D569E109FC99F82A03BA189
:101CD800F2A1A8A25EA312A4C8A47BA52FA6E2A67F
:101CE80095A746A8F5A8A5A954AA02ABAFAB5DACC9
:101CF80009ADB3AD5DAE08AFB1AF58B000B1A6B194
:101D08004AB2EEB293B336B4D7B478B518B6B5B60E
:101D180053B7F2B78EB829B9C3B95CBAF3BA8ABB5C
:101D280022BCB5BC4ABDDCBD6EBE00BF90BF1DC0A5
:101D3800ACC038C1C2C14CC2D6C25FC3E5C369C416
:101D4800EDC472C5F4C575C6F5C674C7F0C76CC8CE
:101D5800E8C860C9D8C951CAC7CA3ACBAECB20CCEB
:101D680092CC02CD6FCDDCCD47CEB0CE19CF82CF8D
:101D7800E9CF4ED0B0D012D175D1D2D132D28ED2D5
:101D8800E9D242D39BD3F2D349D49DD4EFD441D5E1
:101D980091D5DED52CD679D6C2D60AD753D799D7BE
:101DA800DDD721D862D8A1D8E0D81CD959D993D980
:101DB800CAD902DA37DA6CDA9CDACEDAFCDA2CDB4A
:101DC80057DB82DBABDBD3DBFADB1DDC41DC62DC1F
:101DD80083DCA1DCBDDCD9DCF3DC0CDD23DD38DD04
:101DE8004CDD5EDD6DDD7CDD89DD96DDA0DDA8DD09
:101DF800AFDDB5DDBADDBADDBCDDBADDBADDB5DD36
:101E0800AFDDA8DDA0DD96DD89DD7CDD6DDD5EDD85
:101E18004CDD38DD23DD0CDDF3DCD9DCBDDCA1DCF9
:101E280083DC62DC41DC1DDCFADBD3DBABDB82DB91
:101E380057DB2CDBFCDACEDA9CDA6CDA37DA02DA3A
:101E4800CAD993D959D91CD9E0D8A1D862D821D8F0
:101E5800DDD799D753D70AD7C2D679D62CD6DED5AF
:101E680091D541D5EFD49DD449D4F2D39BD342D355
:101E7800E9D28ED232D2D2D175D112D1B0D04ED0D1
:101E8800E9CF82CF19CFB0CE47CEDCCD6FCD02CD12
:101E980092CC20CCAECB3ACBC7CA51CAD8C960C9FC
:101EA800E8C86CC8F0C774C7F5C675C6F4C572C56E
:101EB800EDC469C4E5C35FC3D6C24CC2C2C138C150
:101EC800ACC01DC090BF00BF6EBEDCBD4ABDB5BC76
:101ED80022BC8ABBF3BA5CBAC3B929B98EB8F2B7C7
:101EE80053B7B5B618B678B5D7B436B493B3EEB21F
:101EF8004AB2A6B100B158B0B1AF08AF5DAEB3AD4C
:101F080009AD5DACAFAB02AB54AAA5A9F5A846A82C
:101F180095A7E2A62FA67BA5C8A412A45EA3A8A293
:101F2800F2A13BA182A0C99F109F569E9D9DE19C56
:101F3800279C6A9BAE9AF19934997598B797F99648
:101F48003A967995B994F89338937692B491F29039
:101F580030906D8FAA8EE68D218D5D8C998BD58AF8
:101F68000F8A49898388BD87F88632866B85A48461
:101F7800DC8316834E828781BE80F77F307F677E41
:101F8800A07DD67C0F7C467B7F7AB779EE78257862
:101F98005C779476CB7503753A747273A972E171A4
:101FA8001A715270896FC16EF96D316D6B6CA36BCC
:101FB800DD6A166A4E698768C167FB6635666F65B4
:101FC800AA64E5631F635B629761D2600E604C5F31
:101FD800885EC65D035D425C7F5BBE5AFD593C5915
:101FE8007D58BD57FE563F568155C2540554495336
:101FF8008C52D051145159509E4FE44E2C4E734D73
:10200800BB4C034C4C4B954ADF4929497548C0479E
:102018000E475A46A845F64446449543E64236429A
:102028008841DB402E40823FD73E2C3E823DD93C42
:10203800303C883BE23A3B3A9639F2384D38AB3778
:1020480009376736C63526358734E9334C33AF321E
:1020580013327931DF304630AE2F172F802EEA2D1C
:10206800562DC22C2F2C9D2B0C2B7C2AEC295E295B
:10207800D2284528B9272F27A5261C2695250E25C1
:10208800882403248023FD227B22FA217A21FB2045
:102098007D200020841F081F8E1E161E9D1D261DD4
:1020A800B11C3C1CC81B551BE21A721A021A931960
:1020B8002519B8184C18E11777170F17A6164016E8
:1020C800DA1575151215AF144D14EC138D132E1364
:1020D800D11274121912BE1165110C11B5105E10CF
:1020E8000910B40F610F0F0FBE0E6D0E1E0ED00D2E
:1020F800820D360DEB0CA00C570C0E0CC70B810B88
:102108003B0BF70AB30A710A300AEF09B0097109E3
:102118003309F708BB08800846080D08D6079E074C
:1021280069073307FF06CC069906680637060706CF
:10213800D905AB057D0551052605FB04D204A90484
:1021480081045A0434040E04EA03C603A30381037A
:102158005F033F031F030003E202C402A7028B02CE
:10216800700255023B0222020A02F201DB01C5019C
:10217800AF019A01860172015F014D013B012A01FD
:1021880019010901FA00EB00DD00CF00C200B5001B
:10219800A9009E00930088007E0075006C00630013
:1021A8005B0053004C0045003F00390033002E000F
:1021B8002900240020001C0018001500120010003F
:1021C8000D000B00090007000600050004000300CD
:1021D80002000100010001000000000000000000F2
:1021E800A819000800127A0000127A0000127A007A
:040000050800168554
:00000001FF
