:020000040800F2
:10000000000002205D2B0008592B0008572B000828
:10001000572B0008572B0008572B00080000000042
:10002000000000000000000000000000592B000844
:10003000592B000800000000592B0008592B00081C
:10004000572B0008572B0008572B0008572B000888
:10005000572B0008572B0008051300084113000810
:10006000572B0008572B0008572B0008572B000868
:10007000572B0008572B0008572B0008572B000858
:10008000572B0008572B0008572B0008572B000848
:10009000572B0008572B0008572B0008572B000838
:1000A000572B0008572B0008572B0008572B000828
:1000B0002D12000859120008572B0008572B000872
:1000C000572B0008572B0008572B0008572B000808
:1000D000572B000801150008572B0008572B000864
:1000E000572B0008572B0008572B0008572B0008E8
:1000F000572B0008572B0008572B0008572B0008D8
:10010000572B0008572B0008572B0008572B0008C7
:10011000572B0008572B0008572B0008572B0008B7
:10012000572B0008572B0008572B0008572B0008A7
:10013000572B0008572B0008572B0008572B000897
:10014000572B0008572B0008572B0008572B000887
:10015000572B0008572B0008572B0008572B000877
:10016000572B0008572B0008572B0008572B000867
:10017000572B0008572B0008572B0008572B000857
:10018000572B0008572B0008572B0008572B000847
:10019000572B0008572B0008572B0008572B000837
:1001A000572B0008572B0008572B0008014B1868E5
:1001B00001F056BF0000002010B50A4C40F202606A
:1001C00001F03DFC20464FF400530022012101F0D4
:1001D000BDFB20464FF40053BDE810400222002131
:1001E00001F0D4BB00080240704738B5324C237888
:1001F0000546032B1FD8DFE803F0020B1F2C014636
:100200000122F02000F06EFEA8B10123237012E05D
:1002100001460022F02000F065FE08B102232370A1
:100220000023637000F030FAA0700138C0B200F013
:100230002DFAC4E9020138BDD4E902230146C0E920
:10024000022301224E2000F04DFE0028F3D00323AC
:10025000DCE7D0E90223C4E90423D4E90223014600
:10026000C0E902230122442000F03CFE0028E2D035
:10027000D4E90201D4E90423C0B200F00FFAD4E9B2
:1002800002230E48D1B200F0D7F80C4801F01AF959
:10029000A078431EDBB2A37063B10238C0B200F095
:1002A000F5F9C4E90201022323702878BDE838403B
:1002B00000F01ABD0423A9E7180000200010014037
:1002C00070B5FFF773FFFFF777FF01F0A9F82F482C
:1002D0002F4D304E01F0FCF82F492C4801F0D8F892
:1002E0002B7E042BFCD8DFE803F00409141C030068
:1002F000FEE700F03BFA01232B76F1E700231846D6
:100300001A46314600F0ACFA002000F0EDFC022362
:10031000F2E701231A461846314600F0A1FA0323FA
:10032000EAE700F0D5F904460028D9D0B0F9023048
:10033000002B01DAFFF759FF63885B04D0D5174B18
:10034000D3F8142882F40052C3F81428D3F81428E0
:1003500082F40052C3F81428D3F8142882F400520F
:10036000C3F81428D3F8142882F40052C3F81428D0
:10037000D3F8142882F40052C3F81428D3F81428B0
:1003800082F40052C3F81428AAE700BF001001400D
:1003900018000020000402406831000800000240FC
:1003A00030B4104C237873B92146012501F8025B63
:1003B0001D460133042B0D704D704D8001F1040179
:1003C000F7D1C4F8125002F0FF02282A07D10444E2
:1003D0000123A37430BC0449044801F059B830BC6F
:1003E000704700BF32000020D431000800100140E7
:1003F000D3B2C2F30721120448BFDB430D4A44BF06
:10040000C943DBB210B502EB800048BFC9B24FEA66
:10041000131242EA011203F00703C270C3EB431246
:100420004CBF0124002403EB820303EB830384709D
:10043000838010BD320000202DE9F04105460846BA
:100440000C4600F037F9164E0246A700204606EB90
:1004500084040B46FFF7CCFFA3781BB11149284653
:1004600001F016F8F4190023E278284601F0ACF800
:10047000A3889BB10C49284601F00AF8A388B3F57C
:100480007A7F03D20949284601F002F83E44284603
:10049000B2880023BDE8F04101F096B8BDE8F081D4
:1004A00032000020E2310008E4310008E0310008A9
:1004B000438848F20302934210B510D008D848F29E
:1004C0000102934211D048F2020293423CD010BD87
:1004D000B3F5404FFBD1007800F006FC03E0007854
:1004E000552100F095FB0020F1E71A4CA37D052B68
:1004F0002AD8DFE803F0030B11171E24D0E90223EA
:10050000007800F094FB0123A375ECE70078442108
:1005100000F07EFB0223F7E700785E2100F034FA5A
:100520000323F1E7D0E90223007800F080FB0423E5
:10053000EAE70078BE2100F06BFB0523E4E70078D2
:1005400000F0AAFB0623DFE7024B00229A75012088
:10055000BDE700BF32000020428848F201018A4214
:1005600038B5034605D048F203018A4222D020461E
:1005700038BD134D0078EC7D042C1BD8DFE804F067
:10058000030B0B131500D3E9022300F050FB0123EA
:100590000B4AD375EBE7002100F03AFBEB7D01330A
:1005A000DBB20024F4E7F821F6E700F09DFB01241C
:1005B0000023EDE71878552100F02AFB0023F0E72F
:1005C000320000200346442B0846114603D04E2B30
:1005D00003D1FFF7C1BFFFF76BBF70472DE9F041B3
:1005E0001D46244B164603F1200400211A46D3E988
:1005F00000C7AF4208BFB44503F1080302D014F8A6
:10060000017B8FBB02EBC10752F831407B68AB42E4
:1006100008BFB4422BD0531842F831605FFA81F81A
:1006200083F82400144915487D60012483F8204094
:1006300000F02EFFD7E90023104801F0AAF8324657
:100640002B464046FFF7ACFE0D490C4800F020FF5A
:100650000A484246002300F0B7FF0848094900F065
:1006600017FF2046BDE8F08101310429BFD10020E9
:10067000F8E700BF50000020E631000800100140FC
:10068000F2310008F531000800207047024B03EBFF
:10069000C003D3E9000170475000002030B51D466B
:1006A000034B144603EBC003C3E90A4530BD00BF4A
:1006B00050000020024B03EBC003D3E90A0170474E
:1006C00050000020014B93F8480070475000002074
:1006D00010B50C4B93F8481089B193F849200139B3
:1006E00003F1500000EB021083F8481001320A2198
:1006F000B2FBF1F401FB142283F8492010BD084637
:10070000FCE700BF50000020024B03EB4013D3E98D
:10071000400170475000002070B5124A92F84840DE
:10072000092C07D9104AD2F8143883F40053C2F8C0
:100730001438F8E792F849300A252344B3FBF5F65C
:1007400005FB163302EB0313013483F8500002EB70
:100750004010A3F85210D0E9400182F84840C3E9A4
:10076000160170BD50000020000002402DE9F0414C
:10077000394D95F87061002E6BD14FF080442022E6
:1007800031462846C5F8F44085F80A61C5F8144199
:1007900085F82A61C5F8344185F84A61C5F85441A5
:1007A00085F86A612E6202F08DFC4FF4006001F062
:1007B00046F91C2002F022FA4FF4806001F05AF949
:1007C000324631463346204601F01AFD01276323A5
:1007D0004FF6FF78A362C4F82C80E760236843F0EB
:1007E00005032360E36823F01E03E36063693B4372
:1007F000636140F6010001F022F91D2002F0FEF9CC
:1008000040F2014001F036F9144833463246314691
:1008100001F0F6FC4CF24F33C4F82834C4F82C84B1
:10082000C4F80C74D4F8003443F00503C4F8003461
:10083000D4F80C3423F01E03C4F80C34D4F8143468
:100840003B43C4F8143440F68E0001F0F8F885F804
:100850007071BDE8F08100BF50000020000400402E
:100860002DE9F14FDFF81C911E4699F8703183464F
:100870000D4617460BB9FFF779FFBBF1030F77D889
:1008800009EB4B10012380F80A310023002280F885
:100890000C310023C0E9402344F6FF7348F6FF7291
:1008A000002E18BF1346A0F8FC30334BC0F8F050B0
:1008B0009D424FEA4B1480F8097180F80D613ED0DB
:1008C0002DD8A3F500639D4231D003F580639D428E
:1008D00031D0042F9EBF294B07F1060A13F8078079
:1008E0004C445FFA8AF0C4F8F88002F087F9294690
:1008F000404600F0BBFF0121404600F067FF94F83E
:100900000931012505FA03F39BB2EEB10022D4F8B8
:10091000F000114601B0BDE8F04F01F017B8184BD8
:100920009D42D6D140F2036001F089F8D1E74FF43F
:10093000C06001F084F840F2016001F080F840F2FC
:10094000026001F07CF8EDE7D4F8F0003246294669
:1009500000F0FCFF94F80931D4F8F00005FA03F335
:100960009BB20322314601B0BDE8F04F01F00EB852
:1009700001B0BDE8F08F00BF00080240F931000867
:10098000000C0240500000204B0001339BB24FF698
:10099000FF72012B98BF1346032866D8DFE800F0EA
:1009A000021B344D4FF08042D2F824140139C2F8B2
:1009B0003414D2F8101421F00201C2F81014D2F845
:1009C0000C1441F00201C2F80C14D2F824140B44A8
:1009D000C2F8343470474FF08042D2F82414013901
:1009E000C2F83814D2F8101421F00401C2F810141F
:1009F000D2F80C1441F00401C2F80C14D2F82414FB
:100A00000B44C2F8383470474FF08042D2F82414B7
:100A10000139C2F83C14D2F8101421F00801C2F8D0
:100A20001014D2F80C1441F00801C2F80C14D2F8DA
:100A300024140B44C2F83C3470474FF08042D2F883
:100A400024140139C2F84014D2F8101421F0100116
:100A5000C2F81014D2F80C1441F01001C2F80C14B2
:100A6000D2F824140B44C2F840347047032938BF2D
:100A70000321032846D8DFE800F0021324354FF0A5
:100A800080435A6A013A5A631A6922F002021A61D3
:100A9000DA6842F00202DA605A6A0A445A6370471E
:100AA0004FF080435A6A013A9A631A6922F00402AD
:100AB0001A61DA6842F00402DA605A6A0A449A63F8
:100AC00070474FF080435A6A013ADA631A6922F09C
:100AD00008021A61DA6842F00802DA605A6A0A44C7
:100AE000DA6370474FF080435A6A013A1A641A6910
:100AF00022F010021A61DA6842F01002DA605A6AD3
:100B000011441964704770B5164C04EB401448F258
:100B10000303A4F8FC3094F80931012505FA03F326
:100B200006462946D4F8F0009BB2002200F00EFFE2
:100B300094F80931D4F8F00005FA03F39BB20322CC
:100B4000002100F023FFD4F8F02094F80911536934
:100B50008D4023EA050330465361BDE87040032110
:100B6000FFF784BF5000002070B5174C04EB401411
:100B70004FF40043A4F8FC3094F80931012505FA3C
:100B800003F306462946D4F8F0009BB2002200F099
:100B9000DDFE94F80931D4F8F00005FA03F39BB2B6
:100BA0000322002100F0F2FED4F8F02094F809119D
:100BB00053698D4023EA050330465361BDE8704018
:100BC0000321FFF753BF00BF5000002030B41D4683
:100BD000054B03EB4013144683F80E11C3E940455F
:100BE00030BCFFF790BF00BF5000002030B4074B6F
:100BF00003EB40130024002583F80E1183F80F1136
:100C0000C3E9404530BCFFF7AFBF00BF5000002034
:100C10000A4600230821FFF7D9BF0A460023102106
:100C2000FFF7D4BF0A4600232021FFF7CFBF4021A2
:100C3000FFF7CCBF438848F20102934210B5044647
:100C400004D048F2030293420FD010BD0B4B93F82F
:100C500071210120002AF8D183F871012078D4E9AC
:100C60000223FFF7E4FF0020EFE700785521FFF7AC
:100C7000CFFF024B002283F87121F4E750000020DF
:100C80000221FFF7B3BF0821FFF7B0BF1021FFF724
:100C9000ADBF2021FFF7AABF4021FFF7A7BF08B5CE
:100CA000438848F2020293420DD048F20302934275
:100CB00013D048F20102934201D0002008BD007811
:100CC000FFF7EAFFF9E70078064B03EB4013D3E99F
:100CD0004023FFF783FC0120F0E700783321FFF782
:100CE00097FFEAE75000002070B51A4C04EB40145F
:100CF000012594F8093105FA03F306462946D4F88C
:100D0000F0009BB2002200F021FE94F80931D4F8E3
:100D1000F00005FA03F39BB20322002100F036FE37
:100D2000D4F8F02094F8091153698D4023EA0503A3
:100D3000536148F20603A4F8FC30002384F808311C
:100D400084F80C31304640F2E511BDE87040FFF701
:100D50008DBE00BF500000202DE9F041604C0646DA
:100D60000D4641B100230022C4E95E23C4E960239B
:100D7000002384F8883194F88831402B16D1D4E9C7
:100D80005E233078FFF72AFC00220023C4E95E23AB
:100D9000002384F888313078FFF7A6FFD4E9603269
:100DA00013430CBF01200020BDE8F081728848F297
:100DB00002018A420DD048F203039A4200F0888073
:100DC00048F201039A4202D13078FFF759FF002020
:100DD000EAE7307804EB4011D1E94021551E0D437C
:100DE00056D0951E0D4371D00A4369D1D4E960767F
:100DF0000121A3F12002C3F1200521FA05F501FA32
:100E000002F2C3F120082A43A3F1200E27FA03F5CA
:100E100006FA08F845EA080526FA0EFE45EA0E0528
:100E2000ED0701FA03FC29D5D4E95E51114345EAE7
:100E30000C05C3F13F08C4E95E51A3F11F0E4FF04A
:100E4000FF3121FA08F501FA0EFEC3F11F0321FA62
:100E500003F345EA0E051D4321FA08F127EA0505CB
:100E600026EA01010D4302BF26EA020227EA0C0727
:100E7000C4E9607201220023012106E0164347EA1B
:100E80000C07C4E9607600220023FFF79FFE17E0FD
:100E9000012200230121FFF799FE94F88811012215
:100EA000A1F12003C1F1200022FA00F002FA03F3BD
:100EB00003438A40D4E95E0102430B43C4E95E2345
:100EC00094F88831013384F8883180E70022D2E732
:100ED0003078F021FFF79CFE281E18BF012063E741
:100EE000500000200346CC2B084611D007D8332BE6
:100EF0000AD0552B0AD001461846FFF763BBF02BEA
:100F0000F9D11146FFF728BFFFF7C9BEFFF792BE20
:100F1000012070472DE9F843864F07EB401348F254
:100F20000702B3F8FC30934205464FEA40140CD850
:100F30001A0414D5A3F50043013B062B11D8DFE8B2
:100F400003F026526498B7C2E00048F6FF7293425D
:100F500005D14FF08042D36823EA0101D160BDE89A
:100F6000F8833C44012394F80921D4F8F00093401D
:100F700000229BB2114600F0E9FC48F20103A4F8FC
:100F8000FC300A212846BDE8F843FFF76FBD3C441A
:100F9000D4F8F03094F809211969012393400B40EB
:100FA00094F80E11D3404E1EA1F12102C1F121018E
:100FB00023FA01F103FA02F20A43B340D4E94016DE
:100FC000490841EAC6710B4342EA5602C4E940327D
:100FD00094F80F31013B84F80F3148F20203A4F872
:100FE000FC303221CEE73C4494F80F311BB1BDE810
:100FF000F843FFF7B9BD48F202012846FFF78CFB22
:1010000048F6FF73A4F8FC30A9E73E194FF0010839
:1010100096F80931D6F80021D6F8F00008FA03F363
:1010200012EA08099BB20AD00022114600F08EFC99
:101030003C4448F20403A4F8FC302D21A2E74146C9
:101040004A4600F083FC96F80931D6F8F00008FA19
:1010500003F39BB20322494600F098FCD6F8F02037
:1010600096F80911536908FA01F823EA0803536155
:10107000DEE73C44D4E940325B0843EAC2735208DD
:10108000C4E9403294F80E3194F80921D4F8F00004
:10109000013B84F80E3148F20503A4F8FC3001232B
:1010A0009340002211469BB200F050FC052169E7F5
:1010B0003C4494F80E311BB1BDE8F843FFF723BD63
:1010C00048F2010199E73C44012394F80921D4F83E
:1010D000F0009340002211469BB200F037FC002341
:1010E000D4F8F80084F80C3100F0B2FBD4F8F80022
:1010F00000F090FBF0212846FFF7B8FC48F2070308
:1011000080E73B1993F80C218AB1012283F808216A
:1011100048F203012846FFF7FFFA3B19002283F843
:101120000C2148F6FF72A3F8FC20F0212AE748F2D0
:101130000401EFE75000002070B54FF08044E368F1
:101140002269134098079DB203F01E0608D5236953
:1011500023F002032361626B02210020FFF7DAFE15
:10116000690708D5236923F004032361A26B0421D6
:101170000120FFF7CFFE2A0708D5236923F00803D3
:101180002361E26B08210220FFF7C4FEEB0608D5BD
:10119000236923F010032361226C10210320FFF741
:1011A000B9FE002ECBD170BD70B54FF08044D4F89D
:1011B0000C34D4F81024134098079DB203F01E0697
:1011C0000AD5D4F8103423F00203C4F810344FF4D5
:1011D00040410020FFF7A0FA69070AD5D4F810347F
:1011E00023F00403C4F810344FF440410120FFF70A
:1011F00093FA2A070AD5D4F8103423F00803C4F868
:1012000010344FF440410220FFF786FAEB060AD56E
:10121000D4F8103423F01003C4F810344FF44041D4
:101220000320FFF779FA002EC1D170BD10B54FF041
:1012300080442369DA0742BF236923F00103236155
:10124000E368226913409B0705D5FFF775FF236903
:1012500023F00203236110BD10B54FF08044D4F891
:101260001034DA0742BFD4F8103423F00103C4F875
:101270001034D4F80C34D4F81024134013F01E0F9B
:101280003FD0FFF791FFD4F80C34D4F8102413406A
:101290009B0742BFD4F80C3423F00203C4F80C348B
:1012A0004FF08043D3F80C24D3F810140A405007B1
:1012B00042BFD3F80C2422F00402C3F80C24D3F864
:1012C0000C24D3F810140A40110742BFD3F80C24A1
:1012D00022F00802C3F80C244FF08043D3F80C240A
:1012E000D3F810140A40D20642BFD3F80C2422F0DF
:1012F0001002C3F80C24D3F8102422F01E02C3F805
:10130000102410BD08B5012000F0A2FA0A4A0023FB
:10131000917E59B1517E49B9084A02EB431301202D
:1013200083F80C01BDE8084000F082BA0133042BB9
:1013300002F12002ECD108BD400100205000002045
:1013400008B5022000F084FA154BD3F8142882F473
:101350000052C3F81428D3F8142882F40052C3F8BA
:101360001428D3F8142882F40052C3F81428D3F8B0
:10137000142882F40052C3F814280A4A0023917EEC
:1013800041B1517E012905D1074A02EB431383F88D
:101390000C1108BD0133042B02F12002EFD1F8E754
:1013A000000002404001002050000020014B18784E
:1013B000704700BFE001002000487047E8010020AE
:1013C00010B5064C40F20112002104F1080001F0B2
:1013D00079FE0023A4F80A31237010BDE00100203B
:1013E00010B50E4C40F2016000F029FB204640236E
:1013F0000022022100F0AAFA20460823002202213E
:1014000000F0A4FA20464022072100F0DAFA204634
:101410000822BDE81040072100F0D3BA00040240C2
:1014200010B5FFF7DDFF154C252001F0E7FB40F676
:10143000840000F004FB20464FF4E13101F0DAFAB9
:101440002046082101F0ECFA2046002101F0F1FAD3
:1014500020460C2101F0F9FA2046002101F0EFFAB4
:101460002046002101F0F7FAE36843F02003E3602F
:101470002046BDE8104001F0F4BA00BF0010014062
:10148000024BD868C0F3C010704700BF0010014085
:101490000A4BDA681006FCD40948C0F80C1111F8A0
:1014A000012BD2B25A60DA68C0F80C1142F0800207
:1014B000DA60DA681206FCD4704700BF0010014001
:1014C000E00100200149FFF7E3BF00BFF63100084B
:1014D0000149FFF7DDBF00BFFE310008064B4A1C83
:1014E000C3F80C210A78054BD2B25A60DA6842F090
:1014F0008002DA60704700BFE00100200010014068
:101500002E4BDA6810B594061ED51A6890061BD5C6
:101510002B4A586814782B4A81B2002C39D00D29F7
:101520000C4625D1012182F810115C60D96841F088
:101530008001D96001211170B2F80A1189B2FF2926
:1015400084BF0021A2F80A11DA6811060FD51A68C3
:1015500012060CD51B4A92F81011E9B10A21596004
:10156000002182F81011DA6822F08002DA6010BDE2
:101570005960B2F80A1189B24C1CA4B21144A2F805
:101580000A410872B2F80A1112FA81F100200872B9
:10159000D2E70D29EDD1CDE7D2F80C110029E6D024
:1015A000087800F0FF0410B9C2F80C41DBE7481CD2
:1015B000C2F80C010A78D2B25A60D8E70010014094
:1015C00004000020E00100202DE9F843174E1C46DE
:1015D000002386F8333152EA04030746154604D146
:1015E0001349BDE8F843FFF753BF124BD3F80490FB
:1015F00006F233164FF00108284621460A2200233E
:1016000001F0E8FB19F8023006F8013D2A462346AE
:101610000A2A73F1000305460C4608F10108EBD2D3
:1016200005493846A1EB0801DBE700BFE0010020D7
:10163000E031000804000020140300200149FFF7F6
:1016400027BF00BF0532000810B40A4B5A680B09C7
:1016500001F00F01D45C084B83F81141525C83F810
:101660001221002283F813215DF8044B03F21111BB
:10167000FFF70EBF04000020E001002038B504464B
:101680000D46FFF7DBFF29462046BDE83840FFF74F
:10169000DBBF10B40F4B5A680B0BD45C0E4B83F8B6
:1016A0001141C1F30324145D83F81241C1F3031403
:1016B00001F00F01145D83F81341525C83F814218B
:1016C000002283F815215DF8044B03F21111FFF796
:1016D000DFBE00BF04000020E001002038B5044652
:1016E0000D46FFF7ABFF29462046BDE83840FFF71F
:1016F000D0BF10B4194B1A4A5C680B0FE35C82F838
:101700001131C1F30363E35C82F81231C1F3035377
:10171000E35C82F81331C1F30343E35C82F81431D4
:10172000C1F30333E35C82F81531C1F30323E35CB7
:1017300082F81631C1F30313E35C82F8173101F02C
:101740000F0302F21111E35C82F81831002382F8D2
:1017500019315DF8044BFFF79BBE00BF0400002069
:10176000E001002038B504460D46FFF767FF294623
:101770002046BDE83840FFF7BCBF38B519460446DF
:101780001546FFF7B6FF29462046BDE83840FFF76B
:10179000B0BF70B5044616461D46FFF74FFF3246F0
:1017A0002B462046BDE87040FFF7E7BF70B50C46FA
:1017B00015460646FFF742FF2544AC4200D170BDF6
:1017C00014F8011B3046FFF73FFFF6E701290FD061
:1017D000022918D059B90E4BD3F8082C0243C3F88C
:1017E000082CD3F80C2C22EA0002C3F80C2C70470A
:1017F000074BD3F8082C22EA0002C3F8082CD3F8D0
:101800000C2C0243F1E7024BD3F8082C0243F4E717
:1018100000300140054BD3F8002C0243C3F8002CE4
:10182000D3F8042C0243C3F8042C70470030014065
:10183000064BD3F8002C22EA0002C3F8002CD3F8A0
:10184000042C22EA0002C3F8042C70470030014047
:10185000014BC3F8140C704700300140024BD3F821
:10186000143C1840704700BF003001402DE9F04F94
:101870002C4FDFF8C4E0DFF8C480DFF8C490DFF855
:10188000C4A0DFF8C4B084460022012303FA02F0AA
:1018900010EA0C0F1ED02448814239D027D8A0F579
:1018A0004060814236D01AD8514504D0A1EB0B04D8
:1018B000634263415B001D4800EB9204A40002F008
:1018C00003052068AD000F26AE4020EA0600AB40BD
:1018D000184320600132102AD7D1BDE8F08F494566
:1018E0001AD0134B99420CBF05230023E3E7B942FA
:1018F00014D007D8714513D0A1EB080043424341EF
:10190000DB00D8E70B4B99420CBF0A230023D2E738
:101910000623D0E70323CEE70423CCE70923CAE755
:101920000723C8E70024024000180240024E0010BE
:101930000014024000280240001C02400020024027
:101940000010024000040240000802402DE9F0416E
:101950000568C46800264FF0030E43FA06F7FF0738
:101960000DD577000EFA07FC01FA07F825EA0C05F9
:1019700024EA0C0402FA07F748EA05053C4301365D
:10198000102EEAD10560C460BDE8F08101294168EC
:101990000CBF19439943F0B54160816800240326C8
:1019A00043FA04F5ED0707D5650006FA05F721EAC5
:1019B000070102FA05F529430134102CF0D18160AA
:1019C000F0BDF0B5066A456A00234FF00F0C42FAED
:1019D00003F4E70707D59C000CFA04F726EA07068C
:1019E00001FA04F426430133082BF0D100234FF011
:1019F0000F0C03F1080442FA04F4E40707D59C0035
:101A00000CFA04F725EA070501FA04F4254301332B
:101A1000082BEED106624562F0BD03680B430360FC
:101A20007047036823EA01030360704703681943A2
:101A300001607047036823EA0103036070474309AC
:101A400003F1804303F50E3300F01F0019680122F3
:101A500082400A431A607047430903F1804303F54B
:101A60000E3300F01F001A680121814022EA0102B2
:101A70001A607047430903F1804303F50E3300F009
:101A80001F0019680122824011431960196821EA78
:101A900002021A607047FFF7D2BFFFF7DDBF0000F8
:101AA000044AD2F8083823F4C00343EA4053C2F88A
:101AB0000838704700300240032802D0052808D0BB
:101AC0007047084AD2F8003843F48023C2F800383F
:101AD0007047044AD2F8703843F00403C2F87038F3
:101AE000704700BF00300240032802D0052808D00C
:101AF0007047084AD2F8003823F48023C2F800382F
:101B00007047044AD2F8703823F00403C2F87038E2
:101B1000704700BF00300240072803464FF0010025
:101B200005D90B2B94BF073B063B984080B270470A
:101B300006280CD8DFE800F004242A0C12181E0036
:101B4000154AD2F80C3843F48013C2F80C387047A9
:101B5000114AD2F80C3843F40023F6E70E4AD2F8C3
:101B60000C3843F48023F0E70B4AD2F80C3843F4E6
:101B70000033EAE7084AD2F80C3843F48033E4E74C
:101B8000054AD2F80C3843F48003DEE7024AD2F863
:101B90000C3843F40013D8E70030024006280CD874
:101BA000DFE800F004242A0C12181E00154AD2F8AF
:101BB0000C3843F48053C2F80C387047114AD2F8FD
:101BC0000C3843F40063F6E70E4AD2F80C3843F4BD
:101BD0008063F0E70B4AD2F80C3843F40073EAE76D
:101BE000084AD2F80C3843F48073E4E7054AD2F887
:101BF0000C3843F48043DEE7024AD2F80C3843F451
:101C00000053D8E70030024006280CD8DFE800F087
:101C100004242A0C12181E00154AD2F80C3823F49A
:101C20008053C2F80C387047114AD2F80C3823F4AC
:101C30000063F6E70E4AD2F80C3823F48063F0E72D
:101C40000B4AD2F80C3823F40073EAE7084AD2F8BA
:101C50000C3823F48073E4E7054AD2F80C3823F4F7
:101C60008043DEE7024AD2F80C3823F40053D8E769
:101C70000030024006282FD8DFE800F00422280AAE
:101C800010161C00154BD3F80C08C0F30010704759
:101C9000124BD3F80C08C0F3C00070470F4BD3F8B9
:101CA0000C08C0F3800070470C4BD3F80C08C0F34D
:101CB00040007047094BD3F80C0800F00100704752
:101CC000064BD3F80C08C0F380107047034BD3F8D1
:101CD0000C08C0F3401070470020704700300240ED
:101CE000034AD2F80C3843F40003C2F80C387047AA
:101CF00000300240024BD3F80C08C0F3C01070470C
:101D00000030024006282BD8DFE800F0041E240A29
:101D100010161A00134BD3F80008C0F34060704748
:101D2000104BD3F80008C0F3404070470D4BD3F878
:101D30000008C0F3400070470A4BD3F87008F8E77A
:101D4000084BD3F87408F4E7064BD3F80008C0F347
:101D500040707047034BD3F80008C0F3C060704771
:101D6000002070470030024008B502461046FFF7D9
:101D7000C9FF0028FAD008BD032807D10D4AD2F8C0
:101D8000083803F00C03042BF9D17047042806D15E
:101D9000084AD2F8083813F00C0FFAD1704700281F
:101DA000FCD1044AD2F8083803F00C03082BF9D10F
:101DB000704700BF0030024006280CD8DFE800F072
:101DC00004282E0C12182000174AD2F8003843F0CD
:101DD0008073C2F800387047134AD2F8003843F4D1
:101DE0008033F6E7104AD2F8003843F00103F0E7F9
:101DF0000D4AD2F8703843F00103C2F870387047CA
:101E0000094AD2F8743843F00103C2F874387047B5
:101E1000054AD2F8003843F08053DAE7024AD2F894
:101E2000003843F08063D4E70030024006280CD825
:101E3000DFE800F004282E0C12182000174AD2F810
:101E4000003823F08073C2F800387047134AD2F884
:101E5000003823F48033F6E7104AD2F8003823F034
:101E60000103F0E70D4AD2F8703823F00103C2F8FD
:101E700070387047094AD2F8743823F00103C2F869
:101E800074387047054AD2F8003823F08053DAE7F7
:101E9000024AD2F8003823F08063D4E700300240D1
:101EA000034AD2F8003843F40023C2F800387047E0
:101EB00000300240034AD2F8003823F40023C2F86D
:101EC000003870470030024047F6C0730907044AE3
:101ED00003EA801301F0E0410B43C2F884387047F5
:101EE0000030024012061B0703F0E04302F070626C
:101EF00009041A4301F4403147F6C07303EA801322
:101F00000A431A43014BC3F8882870470030024047
:101F1000084AD2F88C3823F07F4323F47C03090469
:101F200023F4604341EA002123F0FF031943C2F880
:101F30008C18704700300240044AD2F8083823F069
:101F400003030343C2F80838704700BF0030024063
:101F5000044AD2F8043823F4800343EA8053C2F8D9
:101F60000438704700300240044AD2F8083823F49D
:101F7000604343EA4033C2F80838704700300240FB
:101F8000044AD2F8083823F4E05343EA8023C2F825
:101F90000838704700300240044AD2F8083823F06D
:101FA000F00343EA0013C2F80838704700300240DB
:101FB000044AD2F8083823F4F81343EA0043C2F87D
:101FC000083870470030024010B547F6C07404EA84
:101FD000811400F03F001B0603F0706304431C43B0
:101FE000029B5208022B02F1FF324FEA024238BF35
:101FF000022302F440321B0703F0E04314431C4366
:10200000014BC3F8044810BD0030024010B5029CDB
:10201000022C38BF022424071B0603F0706304F06F
:10202000E04452081C4300F03F0047F6C073013AF9
:1020300003EA8113044312041C4302F44032034BAD
:10204000144344F48004C3F8044810BD0030024037
:10205000024BD3F80808C0F38100704700300240FB
:1020600037B504460420FFF7A7FEFFF77DFE0020EA
:10207000FFF762FFE379012B04D10320FFF79CFEF9
:10208000FFF772FE40F61C00FFF7D9FCE07B00F082
:1020900099FE207BFFF780FF607BFFF771FFA07B3D
:1020A000FFF762FF0020FFF7C1FEE379A5792279EF
:1020B00061882078012B637900952FD1FFF7A6FF67
:1020C0000020FFF779FEFFF74FFEA3685A0528D5D9
:1020D00000F03CFEA3689B0526D500F04BFEA068EF
:1020E00000F01AFE0220FFF727FF124AD2F8083844
:1020F00003F00C03082BF9D10F4B22691A600F4B28
:1021000062691A600E4BA2691A60E379012B0ED145
:10211000042003B0BDE83040FFF788BEFFF754FF4E
:10212000CEE700F01DFED5E700F02EFED7E703B0A6
:1021300030BD00BF0030024014000020100000201D
:102140000C000020FFF78CBF044B20F48060984205
:102150000CBF034B034B1868704700BF00100140D1
:102160000C00002010000020094B00F14040B0F5A9
:10217000005FD3F8083806D8064A106813F4E05F09
:1021800018BF40007047044A13F4604F1068F7E727
:1021900000300240100000200C000020014B1868A5
:1021A000704700BF10000020044B20F4806098426C
:1021B0000CBF034B034B1868704700BF003800404A
:1021C000100000200C000020C3680B43C360704760
:1021D000C36823EA0103C36070470369C0681840FD
:1021E000084003D080298CBF00200120704703697C
:1021F0000B4214BF012000207047C94301617047A2
:1022000010B504681A4324F45C740A432243026044
:1022100010BD036823F440730360036801F4407148
:10222000194301607047036843F0800303607047FF
:10223000036823F0800303607047036823F06003A2
:102240000360036801F0600119430160704703688F
:1022500023F0100303607047036843F0100303602A
:102260007047036843F0080303607047036823F076
:10227000080303607047036823F00403036070479A
:10228000036843F0040303607047036823F002030C
:1022900003607047036843F00203036070470368FC
:1022A00043F0010303607047036823F001030360F8
:1022B0007047436801F4FE41194341607047436829
:1022C00001F4FE4123EA010343607047436843F091
:1022D000800343607047436823F080034360704786
:1022E000436823F07003436043680B4343607047C7
:1022F000436823F0080343607047436843F00803D2
:1023000043607047436843F0040343607047436889
:1023100023F0040343607047436843F001034360C4
:102320007047436823F00103436070478162704740
:1023300001637047C1627047062912D8DFE801F0D7
:10234000041109110D111200836943F080038361A8
:102350007047836943F40043F9E7C36943F080039E
:10236000C3617047C36943F40043F9E7062912D8F3
:10237000DFE801F0041109110D111200836923F047
:10238000800383617047836923F40043F9E7C369DD
:1023900023F08003C3617047C36923F40043F9E766
:1023A000062912D8DFE801F0041109110D111200FD
:1023B000836943F0040383617047836943F4806356
:1023C000F9E7C36943F00403C3617047C36943F489
:1023D0008063F9E7062912D8DFE801F0041109113A
:1023E0000D111200836923F0040383617047836930
:1023F00023F48063F9E7C36923F00403C3617047E2
:10240000C36923F48063F9E706297AD8DFE801F08D
:102410000479337963799200836923F0030383613C
:1024200083698361836923F070038361072A68D815
:10243000DFE802F03304090D1115191D836943F01B
:10244000100383617047836943F02003F9E78369D0
:1024500043F03003F5E7836943F04003F1E7836914
:1024600043F05003EDE7836943F06003E9E78369D4
:1024700043F07003E5E7836923F440738361836964
:102480008361836923F4E0438361072A39D8DFE855
:1024900002F004060A0E12161A1E8369D1E7836938
:1024A00043F48053CDE7836943F40053C9E783695C
:1024B00043F44053C5E7836943F48043C1E783692C
:1024C00043F4A043BDE7836943F4C043B9E783699C
:1024D00043F4E043B5E7C36923F00303C361C36971
:1024E000C361C36923F07003C361072A09D8DFE819
:1024F00002F03304090D1115191DC36943F01003CF
:10250000C3617047C36943F02003F9E7C36943F02F
:102510003003F5E7C36943F04003F1E7C36943F0D3
:102520005003EDE7C36943F06003E9E7C36943F093
:102530007003E5E7C36923F44073C361C369C361F2
:10254000C36923F4E043C361072ADAD8DFE802F065
:1025500004060A0E12161A1EC369D1E7C36943F4B2
:102560008053CDE7C36943F40053C9E7C36943F41B
:102570004053C5E7C36943F48043C1E7C36943F4EB
:10258000A043BDE7C36943F4C043B9E7C36943F45B
:10259000E043B5E7062912D8DFE801F0041109117C
:1025A0000D111200836943F008038361704783694A
:1025B00043F40063F9E7C36943F00803C36170475C
:1025C000C36943F40063F9E7062912D8DFE801F094
:1025D000041109110D111200836923F008038361AE
:1025E0007047836923F40063F9E7C36923F00803A4
:1025F000C3617047C36923F40063F9E7062909D86A
:10260000DFE801F0041509190D1D1100036A23F01C
:10261000020303627047036A23F02003F9E7036AA9
:1026200023F40073F5E7036A23F40053F1E7036A28
:1026300023F00803EDE7036A23F08003E9E7036A68
:1026400023F40063E5E7062909D8DFE801F0041563
:1026500009190D1D1100036A43F00203036270475C
:10266000036A43F02003F9E7036A43F40073F5E7D4
:10267000036A43F40053F1E7036A43F00803EDE70C
:10268000036A43F08003E9E7036A43F40063E5E784
:10269000062909D8DFE801F0041509190D1D1100FC
:1026A000036A43F0010303627047036A43F01003B7
:1026B000F9E7036A43F48073F5E7036A43F4805350
:1026C000F1E7036A43F00403EDE7036A43F04003D4
:1026D000E9E7036A43F48063E5E7062909D8DFE800
:1026E00001F0041509190D1D1100036A23F00103FF
:1026F00003627047036A23F01003F9E7036A23F4C7
:102700008073F5E7036A23F48053F1E7036A23F04B
:102710000403EDE7036A23F04003E9E7036A23F4C7
:102720008063E5E7062909D8DFE801F004090D1107
:1027300015191D00436843F4807343607047436874
:1027400043F40073F9E7436843F48063F5E74368B3
:1027500043F40063F1E7436843F48053EDE74368D3
:1027600043F40053E9E7436843F48043E5E706296F
:1027700009D8DFE801F004090D1115191D0043689F
:1027800023F4807343607047436823F40073F9E7D0
:10279000436823F48063F5E7436823F40063F1E7BB
:1027A000436823F48053EDE7436823F40053E9E7DB
:1027B000436823F48043E5E706290CD8DFE801F0FD
:1027C000040B060B080B0A004263704782637047D4
:1027D000C263704702647047436C43F40043436430
:1027E0007047436C23F4004343647047436C43F4E5
:1027F000804343647047436C23F4804343647047D1
:10280000436C43F4005343647047436C23F4005318
:1028100043647047436C43F4805343647047436C94
:1028200023F4805343647047436C43F40063436470
:102830007047436C23F4006343647047436C43F474
:10284000806343647047436C23F480634364704740
:10285000436C0B4343647047FFF7FABF43690B4374
:1028600043617047406A70474162704703291CD832
:10287000DFE801F0020B131C836923F0F00383618E
:10288000836943EA021383617047836923F47043C9
:102890008361836943EA0233F5E7C36923F0F003F8
:1028A000C361C36943EA0213C3617047C36923F478
:1028B0007043C361C36943EA0233F5E703291CD8B7
:1028C000DFE801F0020B131C836923F00C03836122
:1028D000836943EA820383617047836923F4406319
:1028E0008361836943EA8223F5E7C36923F00C031C
:1028F000C361C36943EA8203C3617047C36923F4B8
:102900004063C361C36943EA8223F5E701F0FD0335
:10291000012B02F0030204D1531E012B98BF82F059
:10292000030203291AD8DFE801F0020A121A8369A8
:1029300023F00303836183691343836170478369D1
:1029400023F440738361836943EA0223F5E7C36993
:1029500023F00303C361C3691343C3617047C369B1
:1029600023F44073C361C36943EA0223F5E7026AB3
:10297000890001238B40134303627047036A890077
:1029800001228A4023EA020303627047836823F42A
:1029900070638360836843EA0123836070478368C0
:1029A00023F440538360836843EA013383607047B4
:1029B000836819B143F400438360704723F40043F4
:1029C000FAE7836823F00703836083681943816013
:1029D0007047836823F070038360836819438160C4
:1029E0007047836819B143F480438360704723F4D0
:1029F0008043FAE7074A084B10B520F480649442FC
:102A00001B6804BF054B1B6803EB5103B3FBF1F1DB
:102A1000816010BD00100140100000200C0000205B
:102A2000C36808290CBF23F4805343F48053C36068
:102A30007047036923F440530B4303617047C36835
:102A400023F4C0630B43C3607047C36823F00C03D7
:102A50000B43C3607047436923F440730B434361E6
:102A60007047C36843F40053C3607047C36823F4DE
:102A70000053C360704738B504460D4600F05DF85A
:102A800029462046BDE8384000F04FB810B504464E
:102A900000F057F82046BDE8104000F04AB84369FE
:102AA00043F0400343617047436923F040034361AF
:102AB0007047436943F0800343617047436923F0E3
:102AC000800343617047C36843F02003C3607047CD
:102AD000C36823F02003C3607047C36843F08003DA
:102AE000C3607047C36823F08003C3607047C36846
:102AF00043F04003C3607047C36823F04003C360E2
:102B00007047C36843F01003C3607047C36823F085
:102B10001003C3607047436943F00103436170478A
:102B2000436923F0010343617047C1F30801416029
:102B300070474068C0F30800704703681B06FCD567
:102B4000704703689B06FCD5704703680B4214BFAF
:102B5000012000207047FEE77047000038B51D4A8D
:102B60001D4B1E498B4220D31D4A0021934221D385
:102B70004FF0E0231B4CD3F8142D1B4D42F4007290
:102B8000C3F8142DD3F8882D42F47002C3F8882DB1
:102B9000AC4212D3154C164DAC4212D3FDF790FB4C
:102BA000144C154DAC4210D338BD52F8040B43F809
:102BB000040BD7E743F8041BD8E754F8043B9847C5
:102BC000E6E754F8043B9847E6E754F8043B984797
:102BD000E8E700BF5434000800000020180000207F
:102BE000140300204C3400084C3400084C34000816
:102BF0004C3400084C3400084C340008044B4209A3
:102C000003EB820300F01F00012282401A6070472C
:102C100000E100E0044B420903EB820300F01F00D7
:102C2000012282401A60704780E100E0064B4209B1
:102C300003EB820300F01F001A6801238340134254
:102C400014BF01200020704700E200E0044B42095D
:102C500003EB820300F01F00012282401A607047DC
:102C600000E200E0044B420903EB820300F01F0086
:102C7000012282401A60704780E200E0064B420960
:102C800003EB820300F01F001A6801238340134204
:102C900014BF01200020704700E100E05A2893BFD4
:102CA00000F16040044B00F00F0000F564408CBF61
:102CB000C1540170704700BF14ED00E0064B42099B
:102CC00003EB820300F01F001A68012383401342C4
:102CD00014BF01200020704700E300E0EF289FBFF1
:102CE0004FF0E023D3F8002F1043C3F8000F7047D4
:102CF000034AD2F8003C43F48073C2F8003C7047AA
:102D000000300240034AD2F8003C23F48073C2F83A
:102D1000003C704700300240044AD2F8003C23F0E7
:102D20000F030343C2F8003C704700BF003002406D
:102D3000044B054AC3F8082C02F14432C3F8082CAE
:102D4000704700BF003002403B2A1908034AD2F8FE
:102D5000003C43F48063C2F8003C704700300240FE
:102D6000034AD2F8003C23F48063C2F8003C704769
:102D700000300240034AD2F8003C43F40073C2F82A
:102D8000003C704700300240034AD2F8003C23F474
:102D90000073C2F8003C704700300240034AD2F88A
:102DA000003C43F48053C2F8003C704700300240BE
:102DB000034AD2F8003C43F40063C2F8003C704779
:102DC00000300240024A136860F38F33136070478B
:102DD0000070004053B94AB9002908BF00281CBF41
:102DE0004FF0FF314FF0FF3000F06AB9ADF1080C41
:102DF0006DE904CE00F006F8DDF804E0DDE9022319
:102E000004B070472DE9F047089D0E4604460F4672
:102E1000002B4AD194468C45B2FA82F260D942B175
:102E2000C2F12003974020FA03F30CFA02FC1F437F
:102E300094404FEA1C4E1FFA8CF6B7FBFEF1230CB0
:102E40000EFB117743EA074301FB06F098420AD9CB
:102E50001CEB030301F1FF3780F01581984240F22B
:102E60001281023963441B1AA4B2B3FBFEF00EFBBD
:102E7000103344EA034400FB06F6A6420AD91CEBD1
:102E8000040400F1FF3380F00081A64240F2FD808F
:102E90006444023840EA0140A41B00211DB1D44023
:102EA0000023C5E90043BDE8F0878B4205D90DB189
:102EB000C5E9000100210846F5E7B3FA83F10029CE
:102EC00046D1B34202D3824200F2F580841A66EB07
:102ED000030201201746002DE5D0C5E90047E2E7CF
:102EE000002A40F09380A1EB0C034FEA1C471FFA25
:102EF0008CFE0121B3FBF7F607FB1630230C43EAE7
:102F000000430EFB06F0984208D91CEB030306F1C0
:102F1000FF3802D2984200F2D08046461B1AA4B273
:102F2000B3FBF7F007FB103344EA03440EFB00FE4B
:102F3000A64508D91CEB040400F1FF3302D2A645D4
:102F400000F2B6801846A4EB0E0440EA0640A5E75E
:102F5000C1F120078B4022FA07FC4CEA030C06FA69
:102F600001FE20FA07F426FA07F344EA0E0400FAF9
:102F700001F84FEA1C404FEA1449B3FBF0FE1FFA78
:102F80008CF600FB1E3349EA03430EFB06F9994514
:102F900002FA01F20BD91CEB03030EF1FF3A80F0A9
:102FA0008580994540F28280AEF1020E6344A3EB26
:102FB0000909A4B2B9FBF0F300FB139944EA0944F0
:102FC00003FB06F6A64208D91CEB040403F1FF300C
:102FD00068D2A64266D9023B644443EA0E40A41B71
:102FE000A0FB02E6B4427346B14652D34FD05DB166
:102FF000B8EB030264EB090404FA07F722FA01F3C1
:103000001F43CC40C5E9007400214CE7C2F1200108
:1030100020FA01F30CFA02FC26FA01F19640334340
:103020004FEA1C471FFA8CFEB1FBF7F007FB1016A6
:10303000190C41EA064100FB0EF68E4204FA02F436
:1030400008D91CEB010100F1FF382DD28E422BD99B
:1030500002386144891B9BB2B1FBF7F607FB1611DE
:1030600043EA014306FB0EF1994208D91CEB030326
:1030700006F1FF3814D2994212D9023E63445B1A1A
:1030800046EA004136E73946EDE6184602E7F045E4
:10309000ADD2BEEB020366EB0C060138B146A6E7E3
:1030A0004646ECE7034698E74046D3E7D6467EE738
:1030B0006444023847E708460DE7023E63442DE7C3
:1030C000704700BF830730B548D0541E002A3FD058
:1030D000CAB2034601E0013C3AD303F8012B9D0735
:1030E000F9D1032C2DD9CDB245EA05250F2C45EA9F
:1030F000054536D9A4F1100222F00F0C03F1200E81
:10310000E6444FEA121C03F1100242E9045542E979
:10311000025510327245F8D10CF1010214F00C0F77
:1031200003EB021204F00F0C13D0ACF1040323F0F4
:1031300003030433134442F8045B9342FBD10CF0C5
:1031400003042CB1CAB21C4403F8012B9C42FBD1EE
:1031500030BD64461346002CF4D1F9E7034614460B
:10316000BFE71A46A446E0E74C4850202D20426CA9
:10317000756570696C6C0D0A31775F6D69746D2EC1
:10318000630D0A4F63742031352032303234202DE4
:103190002031363A35363A34360D0A000C00090132
:1031A000040F00010206000000040003A0043A0816
:1031B00050021D04A0043A0819009001040F0001F8
:1031C000020600000004000300E1F50580F0FA02A9
:1031D00000E1F50520617320616E206D33313832D6
:1031E00030002D002E004164646564206465763AE9
:1031F0002000202800290D0A0001020408101B638A
:103200001B5B334A00307800303132333435363787
:10321000383961626364656600000000190050017E
:1032200004070001020600000004000300BD0105C0
:1032300080DE800200BD01051900C000020400010B
:10324000030600000004000300D8B805006CDC028F
:1032500000D8B8051900500102070001050600005A
:1032600000050403007A030A80DE800200BD010528
:1032700019006801020800010506000000050403AA
:103280000095BA0A40A5AE02804A5D0510005001C3
:1032900004070001020600000004000300BD010550
:1032A00080DE800200BD010508006000020400010C
:1032B000030600000004000300D8B805006CDC021F
:1032C00000D8B805100050010207000105060000F3
:1032D00000050403007A030A80DE800200BD0105B8
:1032E0001000680102080001050600000005040343
:1032F0000095BA0A40A5AE02804A5D050C00500157
:1033000004070001020600000004000300BD0105DF
:1033100080DE800200BD010506006000020400019D
:10332000030600000004000300D8B805006CDC02AE
:1033300000D8B8050C005001020700010506000086
:1033400000050403007A030A80DE800200BD010547
:103350000C006801020800010506000000050403D6
:103360000095BA0A40A5AE02804A5D0508005001EA
:1033700004070001020600000004000300BD01056F
:1033800080DE800200BD010504006000020400012F
:10339000030600000004000300D8B805006CDC023E
:1033A00000D8B8050800500102070001050600001A
:1033B00000050403007A030A80DE800200BD0105D7
:1033C000080068010208000105060000000504036A
:1033D0000095BA0A40A5AE02804A5D051000500172
:1033E00004070000020600000004000300BD010500
:1033F00080DE800200BD01050800600002040000BC
:10340000030600000004000300D8B805006CDC02CD
:1034100000D8B805100050010207000005060000A2
:1034200000050403007A030A80DE800200BD010566
:1034300010006801020800000506000000050403F2
:0C3440000095BA0A40A5AE02804A5D0566
:08344C00B8F9FF7F0100000048
:10345400B831000801000000083200080024F4001C
:083464000024F4000024F40030
:0400000508002B5D67
:00000001FF
