:020000040800F2
:1000000000000220AD170008A9170008A717000874
:10001000A7170008A7170008A7170008000000008E
:10002000000000000000000000000000A917000808
:10003000A917000800000000A9170008A917000868
:10004000A7170008A7170008A7170008A717000898
:10005000A7170008A7170008A7170008A717000888
:10006000A7170008A7170008A7170008A717000878
:10007000A7170008A7170008A7170008A717000868
:10008000A7170008A7170008A7170008A717000858
:10009000A7170008A7170008A7170008A717000848
:1000A000A7170008A7170008A7170008A717000838
:1000B000A7170008A7170008A7170008A717000828
:1000C000A7170008E9010008A7170008A7170008EC
:1000D000A7170008C5080008A7170008A7170008F9
:1000E000A7170008A7170008A7170008A7170008F8
:1000F000A7170008A7170008A7170008A7170008E8
:10010000A7170008A7170008A7170008A7170008D7
:10011000A7170008A7170008A7170008A7170008C7
:10012000A7170008A7170008A7170008A7170008B7
:10013000A7170008A7170008A7170008A7170008A7
:10014000A7170008A7170008A7170008A717000897
:10015000A7170008A7170008A7170008A717000887
:10016000A7170008A7170008A7170008A717000877
:10017000A7170008A7170008A7170008A717000867
:10018000A7170008A7170008A7170008A717000857
:10019000A7170008A7170008A7170008A717000847
:1001A000A7170008A7170008A7170008014B186831
:1001B00001F094B90000002010B50A4C40F2026032
:1001C00000F07BFE20464FF400530022012100F096
:1001D000DFFC20464FF40053BDE81040022200210E
:1001E00000F0F6BC0008024037B5814C814B94F812
:1001F000012442B9012284F80124D3F8142822F4FE
:100200000052C3F81428D3F8142882F40052C3F81B
:100210001428D3F8142882F40052C3F81428D3F811
:10022000142882F40052C3F81428D3F8142882F456
:100230000052C3F81428704BD3F81428009294F895
:100240000024042A2FD8DFE802F003306C73AB00DF
:10025000009B9A0727D5684D68484FF4C061012379
:1002600084F8003400F066FDD5F81838644801932E
:10027000D5F8103800F0F4FC00F0A8F9604800F060
:1002800011FD5F4800F05FFDD5F81434D5F818244F
:100290001340DB07F8D55A480022502100F042FDF8
:1002A000012384F8023403B030BD009B5D06FAD50B
:1002B000514AD2F81434980703D494F80234002B2E
:1002C000F7D1D2F818344B4B4E48D3F8141881F4B8
:1002D0000051C3F81418D3F8141881F40051C3F86E
:1002E0001418D3F8141881F40051C3F8141800231B
:1002F00084F80234D2F810188388C9B241EA032383
:10030000838094F803340133DBB284F80334C2F8F9
:10031000101494F80334022BDAB2C4D184F8002408
:10032000C1E7D3F814245107FBD5032384F8003424
:10033000314DD5F818380193009B9A07B3D5019B2E
:100340005B07B0D52B4B2E48D3F8142882F400520B
:10035000C3F81428D3F8142882F40052C3F81428E0
:1003600000F07EFC00F032F9254800F09BFC2448A8
:1003700000F0E9FCD5F81434D5F818241340D80758
:10038000F8D51F480122502100F0CCFCD5F81434D8
:100390009907FBD5D5F81834042384F8003482E794
:1003A000D3F8142452067FF57EAFD3F81024B4F8A6
:1003B00004349BB2692B04BF0023A4F80434B4F8BE
:1003C00004349BB2632B81BF0E4AB4F804349268A4
:1003D00012FA83F394BFD2B213F8642CB4F8043445
:1003E00001339BB2A4F80434034BC3F810285AE736
:1003F0002000002000000240005000400058004053
:10040000005400400000002038B51A4C0025FFF7CA
:10041000CDFEFFF7D1FEC4F8145800F0E3F900F068
:10042000D5F8154800F036FA1449134800F038FAA8
:100430004FF480722946124800F028F800F0F0F8D6
:100440001048502100F016F9D4F814380C4A23F45F
:100450000053C4F814380C4B00BF013BFCD192F898
:100460000034002BF7D1D4F8143883F40053C4F8C7
:100470001438F0E70000024000100140141D00088D
:100480002000002000580040006A1800830730B5A3
:1004900048D0541E002A3FD0CAB2034601E0013CB6
:1004A0003AD303F8012B9D07F9D1032C2DD9CDB2F6
:1004B00045EA05250F2C45EA054536D9A4F1100279
:1004C00022F00F0C03F1200EE6444FEA121C03F158
:1004D000100242E9045542E9025510327245F8D142
:1004E0000CF1010214F00C0F03EB021204F00F0CDC
:1004F00013D0ACF1040323F003030433134442F894
:10050000045B9342FBD10CF003042CB1CAB21C442F
:1005100003F8012B9C42FBD130BD64461346002CEE
:10052000F4D1F9E703461446BFE71A46A446E0E7CC
:1005300010B5114C802320460022022100F028FB38
:1005400020464FF480730022022100F021FB204658
:100550004FF4C0730222012100F03AFB20468022B2
:10056000042100F050FB20464FF48072BDE810409B
:10057000042100F048BB00BF0004024010B5124C3B
:100580004FF4007320460022022100F001FB2046B8
:100590004FF480630022022100F0FAFA20464FF463
:1005A000C0630222012100F013FB20464FF40072C9
:1005B000092100F028FB20464FF48062BDE810407E
:1005C000042100F020BB00BF0004024010B540F63B
:1005D0001500124C00F07EFC40F6150000F06DFC9A
:1005E00040F2016000F069FCFFF7A2FF204600F036
:1005F00037FB204600F051FB2046022100F077FB3C
:1006000020463222012100F029FC2046002100F082
:10061000AEFB2046BDE8104000F03ABB005400405D
:1006200010B540F61600124C00F054FC40F61600CF
:1006300000F043FC40F2016000F03FFCFFF79EFF3A
:10064000204600F00DFB204600F027FB204602214B
:1006500000F04DFB20463222002100F0FFFB204637
:10066000002100F084FB2046BDE8104000F010BBE4
:100670000058004038B504460D4600F00EFB2046F9
:10068000E9B200F01EFB0A4B9C420CBF1F20212048
:1006900001F0DCF820464FF4007100F04BFB2046DF
:1006A00000F0F6FA2046BDE8384000F04CBB00BF31
:1006B000005400402DE9F84304460D4617461E46F7
:1006C00000F0F0FA204600F03EFB6369A269134097
:1006D000D90704F11408F8D50122E9B2204600F048
:1006E00021FBD8F800309A07FBD5A369002506F155
:1006F000FF39B54201D1BDE8F883A94502D12046B2
:1007000000F026FBD8F800305B06FBD5204600F051
:100710000EFB78550135ECE72DE9F04104460F4614
:1007200015461E4600F0BEFA204600F00CFB636939
:10073000A2691340D90704F11408F8D50022F9B2D0
:10074000204600F0EFFAD8F800309A07FBD5A369ED
:100750002E44B54201D1BDE8F08115F8011B2046B9
:1007600000F0CCFAD8F800305B07FBD5F1E700BF0A
:10077000014B1878704700BF2804002000487047DC
:100780003004002010B5064C40F20112002104F1A3
:100790000800FFF77BFE0023A4F80A31237010BD88
:1007A0002804002010B50E4C40F2016000F085FBDB
:1007B000204640230022022100F0EAF920460823C7
:1007C0000022022100F0E4F920464022072100F037
:1007D0001AFA20460822BDE81040072100F013BA9B
:1007E0000004024010B5FFF7DDFF154C252001F095
:1007F0002DF840F6840000F060FB20464FF4E13114
:1008000000F020FF2046082100F032FF20460021A2
:1008100000F037FF20460C2100F03FFF204600216A
:1008200000F035FF2046002100F03DFFE36843F073
:100830002003E3602046BDE8104000F03ABF00BF4F
:1008400000100140024BD868C0F3C010704700BFD1
:10085000001001400A4BDA681006FCD40948C0F8C1
:100860000C1111F8012BD2B25A60DA68C0F80C11E1
:1008700042F08002DA60DA681206FCD4704700BFEA
:1008800000100140280400200149FFF7E3BF00BF2A
:10089000461D00080149FFF7DDBF00BF881D0008A5
:1008A000064B4A1CC3F80C210A78054BD2B25A6099
:1008B000DA6842F08002DA60704700BF2804002046
:1008C000001001402E4BDA6810B594061ED51A6848
:1008D00090061BD52B4A586814782B4A81B2002CFD
:1008E00039D00D290C4625D1012182F810115C6008
:1008F000D96841F08001D96001211170B2F80A1164
:1009000089B2FF2984BF0021A2F80A11DA68110612
:100910000FD51A6812060CD51B4A92F81011E9B1CE
:100920000A215960002182F81011DA6822F0800251
:10093000DA6010BD5960B2F80A1189B24C1CA4B239
:100940001144A2F80A410872B2F80A1112FA81F1B0
:1009500000200872D2E70D29EDD1CDE7D2F80C11B5
:100960000029E6D0087800F0FF0410B9C2F80C4165
:10097000DBE7481CC2F80C010A78D2B25A60D8E70B
:10098000001001400C000020280400202DE9F8434D
:10099000174E1C46002386F8333152EA04030746FB
:1009A000154604D11349BDE8F843FFF753BF124B76
:1009B000D3F8049006F233164FF00108284621467A
:1009C0000A22002301F02EF819F8023006F8013D42
:1009D0002A4623460A2A73F1000305460C4608F10D
:1009E0000108EBD205493846A1EB0801DBE700BF5F
:1009F000280400208F1D00080C0000205C0500204A
:100A00000149FFF727BF00BF911D000810B40A4B32
:100A10005A680B0901F00F01D45C084B83F81141AF
:100A2000525C83F81221002283F813215DF8044BF5
:100A300003F21111FFF70EBF0C0000202804002064
:100A400038B504460D46FFF7DBFF29462046BDE8D2
:100A50003840FFF7DBBF10B40F4B5A680B0BD45C68
:100A60000E4B83F81141C1F30324145D83F8124146
:100A7000C1F3031401F00F01145D83F81341525CBC
:100A800083F81421002283F815215DF8044B03F24A
:100A90001111FFF7DFBE00BF0C000020280400206A
:100AA00038B504460D46FFF7ABFF29462046BDE8A2
:100AB0003840FFF7D0BF10B4194B1A4A5C680B0FCF
:100AC000E35C82F81131C1F30363E35C82F8123115
:100AD000C1F30353E35C82F81331C1F30343E35CD6
:100AE00082F81431C1F30333E35C82F81531C1F3AA
:100AF0000323E35C82F81631C1F30313E35C82F84D
:100B0000173101F00F0302F21111E35C82F8183182
:100B1000002382F819315DF8044BFFF79BBE00BF3C
:100B20000C0000202804002038B504460D46FFF7CD
:100B300067FF29462046BDE83840FFF7BCBF38B5FF
:100B4000194604461546FFF7B6FF29462046BDE87C
:100B50003840FFF7B0BF70B5044616461D46FFF794
:100B60004FFF32462B462046BDE87040FFF7E7BFF7
:100B700070B50C4615460646FFF742FF2544AC42C9
:100B800000D170BD14F8011B3046FFF73FFFF6E7B8
:100B90002DE9F0410568C46800264FF0030E43FAC2
:100BA00006F7FF070DD577000EFA07FC01FA07F8E4
:100BB00025EA0C0524EA0C0402FA07F748EA0505C1
:100BC0003C430136102EEAD10560C460BDE8F081D7
:100BD000012941680CBF19439943F0B54160816810
:100BE0000024032643FA04F5ED0707D5650006FA4D
:100BF00005F721EA070102FA05F529430134102C13
:100C0000F0D18160F0BDF0B5066A456A00234FF06F
:100C10000F0C42FA03F4E70707D59C000CFA04F71F
:100C200026EA070601FA04F426430133082BF0D123
:100C300000234FF00F0C03F1080442FA04F4E40718
:100C400007D59C000CFA04F725EA070501FA04F41D
:100C500025430133082BEED106624562F0BD00004A
:100C60000A4B98420BD003F5806398420AD0A3F553
:100C70000063984209D140F2154000F039B940F2C2
:100C80001640FAE740F21740F7E770470058004077
:100C9000036843F0010303607047036823F0010316
:100CA00003607047036843F4807303607047036810
:100CB00043F4007303607047036823F40073036018
:100CC0007047490041F480418160704741F4004120
:100CD000816070474900C1607047C36843F00103F9
:100CE000C3607047C36823F00103C3607047436863
:100CF00023F03F039BB21943416070470161704785
:100D0000C36943F40043C3617047C36923F40043DC
:100D1000C3617047C36903F470430B43C3617047F9
:100D20000162704742EA4102D2B202617047006933
:100D3000C0B2704743680B4343607047436823EA7F
:100D4000010343607047036843F4806303607047A6
:100D5000036823F4806303607047036843F400630F
:100D600003607047036823F4006303607047C3693E
:100D700019B923F48043C361704743F48043FAE711
:100D8000436843F4006343607047436823F400639F
:100D900043607047436843F480534360704743683F
:100DA00023F48053436070472DE9F0411C46DDE990
:100DB000066533B383699F0700F11808FAD4FFF77B
:100DC00071FF4369DB0700F11407FAD5D8F800304A
:100DD000DB07F6D5D8F800309B07F2D54B00DBB225
:100DE00000F1100C03613B689B07FCD58369144438
:100DF00012F8013BCCF800303B685B07FCD5A242FF
:100E0000F6D13DB3FFF74EFFFFF79DFF4369DA07C9
:100E100000F11404FAD58369DB07F7D583699F07CE
:100E2000F4D5490041F00101C9B200F11007016198
:100E300023689A07FCD583690022691E914201D17B
:100E4000FFF786FF23685B06FCD53B68B35401328D
:100E50009542F3D1BDE8F041FFF729BFF8B50F4641
:100E600094B2D1B2FFF743FF661C012F0546B6B21C
:100E70000BD1FFF745FF02EB82020623B2FBF3F131
:100E800089B2FFF747FF2E62F8BD04EB8404FFF739
:100E90003CFFA1B2F5E703680B43036070470368AA
:100EA00023EA010303607047036819430160704738
:100EB000036823EA010303607047430903F1804399
:100EC00003F50E3300F01F001968012282400A4327
:100ED0001A607047430903F1804303F50E3300F0B5
:100EE0001F001A680121814022EA01021A6070473E
:100EF000430903F1804303F50E3300F01F00196826
:100F00000122824011431960196821EA02021A6025
:100F10007047FFF7D2BFFFF7DDBF0000044AD2F8E9
:100F2000083823F4C00343EA4053C2F80838704736
:100F300000300240032802D0052808D07047084A34
:100F4000D2F8003843F48023C2F800387047044ACE
:100F5000D2F8703843F00403C2F87038704700BF0D
:100F600000300240032802D0052808D07047084A04
:100F7000D2F8003823F48023C2F800387047044ABE
:100F8000D2F8703823F00403C2F87038704700BFFD
:100F900000300240072803464FF0010005D90B2B13
:100FA00094BF073B063B984080B2704706280CD898
:100FB000DFE800F004242A0C12181E00154AD2F8AB
:100FC0000C3843F48013C2F80C387047114AD2F839
:100FD0000C3843F40023F6E70E4AD2F80C3843F4F9
:100FE0008023F0E70B4AD2F80C3843F40033EAE7E9
:100FF000084AD2F80C3843F48033E4E7054AD2F8C3
:101000000C3843F48003DEE7024AD2F80C3843F48C
:101010000013D8E70030024006280CD8DFE800F0C3
:1010200004242A0C12181E00154AD2F80C3843F476
:101030008053C2F80C387047114AD2F80C3843F488
:101040000063F6E70E4AD2F80C3843F48063F0E709
:101050000B4AD2F80C3843F40073EAE7084AD2F896
:101060000C3843F48073E4E7054AD2F80C3843F4B3
:101070008043DEE7024AD2F80C3843F40053D8E745
:101080000030024006280CD8DFE800F004242A0CC7
:1010900012181E00154AD2F80C3823F48053C2F8F7
:1010A0000C387047114AD2F80C3823F40063F6E785
:1010B0000E4AD2F80C3823F48063F0E70B4AD2F8DA
:1010C0000C3823F40073EAE7084AD2F80C3823F40A
:1010D0008073E4E7054AD2F80C3823F48043DEE756
:1010E000024AD2F80C3823F40053D8E7003002400B
:1010F00006282FD8DFE800F00422280A10161C006A
:10110000154BD3F80C08C0F300107047124BD3F8FE
:101110000C08C0F3C00070470F4BD3F80C08C0F3A5
:10112000800070470C4BD3F80C08C0F340007047A8
:10113000094BD3F80C0800F001007047064BD3F8B8
:101140000C08C0F380107047034BD3F80C08C0F3B1
:10115000401070470020704700300240034AD2F828
:101160000C3843F40003C2F80C38704700300240DA
:10117000024BD3F80C08C0F3C01070470030024097
:1011800006282BD8DFE800F0041E240A10161A00E7
:10119000134BD3F80008C0F340607047104BD3F8EE
:1011A0000008C0F3404070470D4BD3F80008C0F36F
:1011B000400070470A4BD3F87008F8E7084BD3F8A3
:1011C0007408F4E7064BD3F80008C0F3407070478A
:1011D000034BD3F80008C0F3C0607047002070478D
:1011E0000030024008B502461046FFF7C9FF00284C
:1011F000FAD008BD032807D10D4AD2F8083803F009
:101200000C03042BF9D17047042806D1084AD2F800
:10121000083813F00C0FFAD170470028FCD1044AAB
:10122000D2F8083803F00C03082BF9D1704700BF3F
:101230000030024006280CD8DFE800F004282E0C0D
:1012400012182000174AD2F8003843F08073C2F811
:1012500000387047134AD2F8003843F48033F6E779
:10126000104AD2F8003843F00103F0E70D4AD2F8F3
:10127000703843F00103C2F870387047094AD2F859
:10128000743843F00103C2F874387047054AD2F845
:10129000003843F08053DAE7024AD2F8003843F0CE
:1012A0008063D4E70030024006280CD8DFE800F065
:1012B00004282E0C12182000174AD2F8003823F008
:1012C0008073C2F800387047134AD2F8003823F40C
:1012D0008033F6E7104AD2F8003823F00103F0E734
:1012E0000D4AD2F8703823F00103C2F87038704705
:1012F000094AD2F8743823F00103C2F874387047F1
:10130000054AD2F8003823F08053DAE7024AD2F8CF
:10131000003823F08063D4E700300240034AD2F85B
:10132000003843F40023C2F8003870470030024010
:10133000034AD2F8003823F40023C2F8003870477B
:101340000030024047F6C0730907044A03EA8013DD
:1013500001F0E0410B43C2F884387047003002408E
:1013600012061B0703F0E04302F0706209041A43FF
:1013700001F4403147F6C07303EA80130A431A436D
:10138000014BC3F88828704700300240084AD2F861
:101390008C3823F07F4323F47C03090423F4604357
:1013A00041EA002123F0FF031943C2F88C1870476B
:1013B00000300240044AD2F8083823F00303034304
:1013C000C2F80838704700BF00300240044AD2F823
:1013D000043823F4800343EA8053C2F8043870478A
:1013E00000300240044AD2F8083823F4604343EA4C
:1013F0004033C2F80838704700300240044AD2F83F
:10140000083823F4E05343EA8023C2F808387047D1
:1014100000300240044AD2F8083823F0F00343EACF
:101420000013C2F80838704700300240044AD2F86E
:10143000083823F4F81343EA0043C2F80838704729
:101440000030024010B547F6C07404EA811400F081
:101450003F001B0603F0706304431C43029B5208C9
:10146000022B02F1FF324FEA024238BF022302F49C
:1014700040321B0703F0E04314431C43014BC3F805
:10148000044810BD0030024010B5029C022C38BF49
:10149000022424071B0603F0706304F0E0445208A2
:1014A0001C4300F03F0047F6C073013A03EA811382
:1014B000044312041C4302F44032034B144344F42B
:1014C0008004C3F8044810BD00300240024BD3F83A
:1014D0000808C0F3810070470030024037B5044669
:1014E0000420FFF7A7FEFFF77DFE0020FFF762FF55
:1014F000E379012B04D10320FFF79CFEFFF772FE76
:1015000040F61C00FFF7D9FCE07B00F083FA207B5B
:10151000FFF780FF607BFFF771FFA07BFFF762FFA3
:101520000020FFF7C1FEE379A57922796188207850
:10153000012B637900952FD1FFF7A6FF0020FFF75D
:1015400079FEFFF74FFEA3685A0528D500F026FA6A
:10155000A3689B0526D500F035FAA06800F004FAD0
:101560000220FFF727FF124AD2F8083803F00C03D5
:10157000082BF9D10F4B22691A600F4B62691A6070
:101580000E4BA2691A60E379012B0ED1042003B03F
:10159000BDE83040FFF788BEFFF754FFCEE700F00C
:1015A00007FAD5E700F018FAD7E703B030BD00BF5F
:1015B000003002401C000020180000201400002011
:1015C000FFF78CBF044B20F4806098420CBF034BA4
:1015D000034B1868704700BF001001401400002042
:1015E00018000020094B00F14040B0F5005FD3F82F
:1015F000083806D8064A106813F4E05F18BF4000A8
:101600007047044A13F4604F1068F7E70030024057
:101610001800002014000020014B1868704700BF1C
:1016200018000020044B20F4806098420CBF034B4C
:10163000034B1868704700BF0038004018000020B6
:1016400014000020074A084B10B520F4806494422F
:101650001B6804BF054B1B6803EB5103B3FBF1F19F
:10166000816010BD0010014018000020140000200F
:10167000C36808290CBF23F4805343F48053C3602C
:101680007047036923F440530B4303617047C368F9
:1016900023F4C0630B43C3607047C36823F00C039B
:1016A0000B43C3607047436923F440730B434361AA
:1016B0007047C36843F40053C3607047C36823F4A2
:1016C0000053C360704738B504460D4600F05DF81E
:1016D00029462046BDE8384000F04FB810B5044612
:1016E00000F057F82046BDE8104000F04AB84369C2
:1016F00043F0400343617047436923F04003436173
:101700007047436943F0800343617047436923F0A6
:10171000800343617047C36843F02003C360704790
:10172000C36823F02003C3607047C36843F080039D
:10173000C3607047C36823F08003C3607047C36809
:1017400043F04003C3607047C36823F04003C360A5
:101750007047C36843F01003C3607047C36823F049
:101760001003C3607047436943F00103436170474E
:10177000436923F0010343617047C1F308014160ED
:1017800070474068C0F30800704703681B06FCD52B
:10179000704703689B06FCD5704703680B4214BF73
:1017A000012000207047FEE77047000038B51D4A51
:1017B0001D4B1E498B4220D31D4A0021934221D349
:1017C0004FF0E0231B4CD3F8142D1B4D42F4007254
:1017D000C3F8142DD3F8882D42F47002C3F8882D75
:1017E000AC4212D3154C164DAC4212D3FEF70CFE90
:1017F000144C154DAC4210D338BD52F8040B43F8CD
:10180000040BD7E743F8041BD8E754F8043B984788
:10181000E6E754F8043B9847E6E754F8043B98475A
:10182000E8E700BFE01F00080000002020000020C3
:101830005C050020D81F0008D81F0008D81F00082A
:10184000D81F0008D81F0008D81F0008044B420901
:1018500003EB820300F01F00012282401A607047F0
:1018600000E100E0044B420903EB820300F01F009B
:10187000012282401A60704780E100E0064B420975
:1018800003EB820300F01F001A6801238340134218
:1018900014BF01200020704700E200E0044B420921
:1018A00003EB820300F01F00012282401A607047A0
:1018B00000E200E0044B420903EB820300F01F004A
:1018C000012282401A60704780E200E0064B420924
:1018D00003EB820300F01F001A68012383401342C8
:1018E00014BF01200020704700E100E05A2893BF98
:1018F00000F16040044B00F00F0000F564408CBF25
:10190000C1540170704700BF14ED00E0064B42095E
:1019100003EB820300F01F001A6801238340134287
:1019200014BF01200020704700E300E0EF289FBFB4
:101930004FF0E023D3F8002F1043C3F8000F704797
:10194000034AD2F8003C43F48073C2F8003C70476D
:1019500000300240034AD2F8003C23F48073C2F8FE
:10196000003C704700300240044AD2F8003C23F0AB
:101970000F030343C2F8003C704700BF0030024031
:10198000044B054AC3F8082C02F14432C3F8082C72
:10199000704700BF003002403B2A1908034AD2F8C2
:1019A000003C43F48063C2F8003C704700300240C2
:1019B000034AD2F8003C23F48063C2F8003C70472D
:1019C00000300240034AD2F8003C43F40073C2F8EE
:1019D000003C704700300240034AD2F8003C23F438
:1019E0000073C2F8003C704700300240034AD2F84E
:1019F000003C43F48053C2F8003C70470030024082
:101A0000034AD2F8003C43F40063C2F8003C70473C
:101A100000300240024A136860F38F33136070474E
:101A20000070004053B94AB9002908BF00281CBF04
:101A30004FF0FF314FF0FF3000F06AB9ADF1080C04
:101A40006DE904CE00F006F8DDF804E0DDE90223DC
:101A500004B070472DE9F047089D0E4604460F4636
:101A6000002B4AD194468C45B2FA82F260D942B139
:101A7000C2F12003974020FA03F30CFA02FC1F4343
:101A800094404FEA1C4E1FFA8CF6B7FBFEF1230C74
:101A90000EFB117743EA074301FB06F098420AD98F
:101AA0001CEB030301F1FF3780F01581984240F2EF
:101AB0001281023963441B1AA4B2B3FBFEF00EFB81
:101AC000103344EA034400FB06F6A6420AD91CEB95
:101AD000040400F1FF3380F00081A64240F2FD8053
:101AE0006444023840EA0140A41B00211DB1D440E7
:101AF0000023C5E90043BDE8F0878B4205D90DB14D
:101B0000C5E9000100210846F5E7B3FA83F1002991
:101B100046D1B34202D3824200F2F580841A66EBCA
:101B2000030201201746002DE5D0C5E90047E2E792
:101B3000002A40F09380A1EB0C034FEA1C471FFAE8
:101B40008CFE0121B3FBF7F607FB1630230C43EAAA
:101B500000430EFB06F0984208D91CEB030306F184
:101B6000FF3802D2984200F2D08046461B1AA4B237
:101B7000B3FBF7F007FB103344EA03440EFB00FE0F
:101B8000A64508D91CEB040400F1FF3302D2A64598
:101B900000F2B6801846A4EB0E0440EA0640A5E722
:101BA000C1F120078B4022FA07FC4CEA030C06FA2D
:101BB00001FE20FA07F426FA07F344EA0E0400FABD
:101BC00001F84FEA1C404FEA1449B3FBF0FE1FFA3C
:101BD0008CF600FB1E3349EA03430EFB06F99945D8
:101BE00002FA01F20BD91CEB03030EF1FF3A80F06D
:101BF0008580994540F28280AEF1020E6344A3EBEA
:101C00000909A4B2B9FBF0F300FB139944EA0944B3
:101C100003FB06F6A64208D91CEB040403F1FF30CF
:101C200068D2A64266D9023B644443EA0E40A41B34
:101C3000A0FB02E6B4427346B14652D34FD05DB129
:101C4000B8EB030264EB090404FA07F722FA01F384
:101C50001F43CC40C5E9007400214CE7C2F12001CC
:101C600020FA01F30CFA02FC26FA01F19640334304
:101C70004FEA1C471FFA8CFEB1FBF7F007FB10166A
:101C8000190C41EA064100FB0EF68E4204FA02F4FA
:101C900008D91CEB010100F1FF382DD28E422BD95F
:101CA00002386144891B9BB2B1FBF7F607FB1611A2
:101CB00043EA014306FB0EF1994208D91CEB0303EA
:101CC00006F1FF3814D2994212D9023E63445B1ADE
:101CD00046EA004136E73946EDE6184602E7F045A8
:101CE000ADD2BEEB020366EB0C060138B146A6E7A7
:101CF0004646ECE7034698E74046D3E7D6467EE7FC
:101D00006444023847E708460DE7023E63442DE786
:101D1000704700BF4C4850202D20426C756570699B
:101D20006C6C0D0A6932635F6D69746D2E630D0A08
:101D30004175672031392032303234202D20313442
:101D40003A35373A33300D0A004D49544D210000E1
:101D50000C000901040F000102060000000400034A
:101D6000A0043A0850021D04A0043A08190090018A
:101D7000040F0001020600000004000300E1F50565
:101D800080F0FA0200E1F5051B631B5B334A00306B
:101D900000307800303132333435363738396162CB
:101DA000636465660000000019005001040700012B
:101DB000020600000004000300BD010580DE800271
:101DC00000BD01051900C000020400010306000067
:101DD0000004000300D8B805006CDC0200D8B80588
:101DE0001900500102070001050600000005040368
:101DF000007A030A80DE800200BD01051900680137
:101E00000208000105060000000504030095BA0A57
:101E100040A5AE02804A5D05100050010407000194
:101E2000020600000004000300BD010580DE800200
:101E300000BD010508006000020400010306000067
:101E40000004000300D8B805006CDC0200D8B80517
:101E50001000500102070001050600000005040300
:101E6000007A030A80DE800200BD010510006801CF
:101E70000208000105060000000504030095BA0AE7
:101E800040A5AE02804A5D050C0050010407000128
:101E9000020600000004000300BD010580DE800290
:101EA00000BD0105060060000204000103060000F9
:101EB0000004000300D8B805006CDC0200D8B805A7
:101EC0000C00500102070001050600000005040394
:101ED000007A030A80DE800200BD01050C00680163
:101EE0000208000105060000000504030095BA0A77
:101EF00040A5AE02804A5D050800500104070001BC
:101F0000020600000004000300BD010580DE80021F
:101F100000BD01050400600002040001030600008A
:101F20000004000300D8B805006CDC0200D8B80536
:101F30000800500102070001050600000005040327
:101F4000007A030A80DE800200BD010508006801F6
:101F50000208000105060000000504030095BA0A06
:101F600040A5AE02804A5D05100050010407000044
:101F7000020600000004000300BD010580DE8002AF
:101F800000BD010508006000020400000306000017
:101F90000004000300D8B805006CDC0200D8B805C6
:101FA00010005001020700000506000000050403B0
:101FB000007A030A80DE800200BD0105100068017E
:101FC0000208000005060000000504030095BA0A97
:081FD00040A5AE02804A5D0548
:081FD8007CFAFF7F010000000C
:101FE0006C1D0008BBAA0000491D0008010000008C
:101FF000941D00080024F4000024F4000024F400E0
:04000005080017AD2B
:00000001FF
